:020000040800F2
:100000007805002045010008811E0008831E0008B5
:10001000871E00088B1E00088F1E000800000000CD
:10002000000000000000000000000000931E000817
:10003000951E000800000000971E0008991E000889
:100040005F0100085F0100085F0100085F01000810
:100050005F0100085F0100089B1E00085F010008A7
:100060005F0100085F0100085F0100085F010008F0
:100070005F0100085F0100085F0100085F010008E0
:100080005F0100085F0100085F0100085F010008D0
:100090005F0100085F0100085F0100085F010008C0
:1000A0005F0100085F0100085F0100085F010008B0
:1000B000472400085F0100085F0100085F01000895
:1000C0005F0100085F0100085F0100085F01000890
:1000D0005F010008FB1E00085F0100085F010008C7
:1000E000C91E00085F0100085F0100085F010008E9
:1000F0005F0100085F0100085F0100085F01000860
:100100005F0100085F0100085F0100085F0100084F
:100110005F0100085F0100085F0100085F0100083F
:100120005F0100085F0100085F0100085F0100082F
:10013000DFF80CD003F0DAFA00480047651E00082B
:10014000780500200648804706480047FEE7FEE79E
:10015000FEE7FEE7FEE7FEE7FEE7FEE7FEE7FEE777
:1001600047020008310100080CB500200190009002
:100170006C48006840F480306A49086000BF6948F4
:10018000006800F4003000900198401C0190009835
:1001900018B90198B0F5A06FF1D16248006800F479
:1001A000003010B10120009001E000200090009884
:1001B000012843D15C48006840F010005A490860AB
:1001C0000846006820F0030008600846006840F018
:1001D0000200086053484068524948600846406839
:1001E00048600846406840F48060486008464068BF
:1001F00020F47C1048600846406840F4E8104860ED
:100200000846006840F08070086000BF45480068FC
:1002100000F000700028F9D04248406820F0030048
:10022000404948600846406840F00200486000BF0E
:100230003C48406800F00C000828F9D10CBD10B50E
:10024000FFF792FF10BD10B53648006840F001007E
:1002500034490860084640683449084031494860DC
:1002600008460068324908402E4908600846006880
:1002700020F4802008600846406820F4FE004860B2
:100280004FF41F008860FFF7DAFF4FF00060294944
:10029000086010BD10B5002100200022214B5B68D2
:1002A00003F00C0121B1042906D0082928D107E068
:1002B000214B224C236027E01F4B204C236023E07E
:1002C000184B5B6803F47010164B5B6803F48032C4
:1002D000022303EB904022B9194B4343174C236090
:1002E0000DE0104B5B6803F4003323B1144B434320
:1002F000124C236003E0104B4343104C236003E097
:100300000D4B0E4C236000BF00BF064B5B68C3F370
:1003100003130C4CE15C094B1B68CB40074C23607A
:1003200010BD000000100240002002400000FFF855
:10033000FFFFF6FE08ED00E000127A00000000204A
:1003400000093D000400002031490143314A116099
:10035000704770B5002100230F22C47804B32D4CE0
:10036000246804F4E064C4F5E064210AC1F10403E4
:10037000CA40447804FA03F1847814402143090107
:10038000254C0678A155047804F01F050124AC40E3
:1003900005786D11AD0005F1E025C5F8004109E0D3
:1003A000047804F01F050124AC401C4D067876113A
:1003B00045F8264070BD1A4A0A400243154B1B1FE0
:1003C0001A60704739B1134A121D12680243114B6B
:1003D0001B1D1A6006E00F4A121D126882430D4B66
:1003E0001B1D1A607047042808D14FF0E0210969ED
:1003F00041F004014FF0E022116107E04FF0E021ED
:10040000096921F004014FF0E022116170470000FA
:100410000000FA050CED00E000E400E080E100E0FF
:1004200080FFFF1F002044490860091D0860091D66
:100430000860091D086041483F4914310860704751
:1004400000213D498279002A3AD00A4612680368A1
:100450009A430B461A600A1D126803689A430B1DE3
:100460001A60027911440A6803681A430A60324A22
:100470000832126803689A432F4B08331A601A1D1A
:10048000126803689A432C4B0C331A604279102A85
:100490000ED11A1F126803681A43274B08331A60DB
:1004A0001A1D126803681A43234B0C331A600DE0BF
:1004B0002149427911440A6803681A430A6005E039
:1004C000027911440A6803689A430A607047002160
:1004D000016001710C214171002181717047164941
:1004E000103109680143144A103211607047014607
:1004F0000020114A143212680A400AB1012000E0BB
:10050000002070470C4914310860704701460020F4
:100510000022094B1B6803EA0102074B14331B68D6
:100520000B4013B10AB1012000E0002070470249DE
:10053000143108607047000000040140FFFF0F0005
:1005400010B50446CC48844208D10121042000F0B3
:100550002DFB0021042000F029FB46E0C74884421F
:1005600008D10121082000F021FB0021082000F023
:100570001DFB3AE0C248844208D10121102000F05E
:1005800015FB0021102000F011FB2EE0BD48844235
:1005900008D10121202000F009FB0021202000F0DB
:1005A00005FB22E0B848844208D10121402000F038
:1005B000FDFA0021402000F0F9FA16E0B348844229
:1005C00008D10121802000F0F1FA0021802000F004
:1005D000EDFA0AE0AE48844207D10121801500F00F
:1005E000E5FA0021A01500F0E1FA10BD10B50121D7
:1005F000084600F0DBFA0021012000F0D7FA10BD18
:100600002DE9F041024600250026002000230024A9
:10061000002791F803C00CF00F0591F803C00CF00F
:10062000100CBCF1000F03D091F802C04CEA050594
:1006300091F800C0BCF1000F31D0146800202BE00D
:100640004FF0010C0CFA00F3B1F800C00CEA0306FD
:100650009E4220D183004FF00F0C0CFA03F7BC43ED
:1006600005FA03FC4CEA040491F803C0BCF1280F1E
:1006700006D14FF0010C0CFA00FCC2F814C00AE0DD
:1006800091F803C0BCF1480F05D14FF0010C0CFAF2
:1006900000FCC2F810C0401C0828D1D31460B1F887
:1006A00000C0BCF1FF0F34DD546800202EE000F1E3
:1006B000080C4FF0010808FA0CF3B1F800C00CEA7E
:1006C00003069E4221D183004FF00F0C0CFA03F772
:1006D000BC4305FA03FC4CEA040491F803C0BCF1E6
:1006E000280F05D100F1080C08FA0CF8C2F81480A4
:1006F00091F803C0BCF1480F07D100F1080C4FF08E
:10070000010808FA0CF8C2F81080401C0828CED363
:100710005460BDE8F0814FF6FF71018002218170C5
:100720000421C17070470246002093680B400BB152
:10073000012000E0002070470146886880B27047C1
:1007400002460020D3680B400BB1012000E00020DE
:1007500070470146C86880B27047016170474161C7
:1007600070470AB1016100E041617047C1607047A4
:100770004FF480320A4382618161826182698269B9
:10078000704702460020434B18684FF680731840AC
:1007900040EA021008433F4B186070473E49C86169
:1007A0007047F0B50A46002300240021002500F020
:1007B0000046B6F1004F02D1364EF16901E0354EE8
:1007C0007168C0F3034583B200F44016B6F5401FCC
:1007D00008D121F070612F4E766826F070662D4F9B
:1007E0007E6012E000F48016B6F5801F06D1032665
:1007F00006FA05F4A14341F0706106E0460D3601AA
:1008000003FA06F6B14341F0706122B1460D36019C
:1008100003FA06F6314300F00046B6F1004F02D16C
:100820001C4EF16101E01B4E7160F0BD30B500223D
:100830008B071C0F0F2303FA04F2164B08338C109E
:1008400053F824309343134C08348D1044F825306A
:1008500023468C1053F824308C07240F00FA04F43C
:1008600023430C4C08348D1044F8253030BD0A4920
:10087000DC3108607047000000080140000C0140B6
:10088000001001400014014000180140001C01400C
:10089000002001400000014000002042DF480068C5
:1008A00040F00100DD49086008464068DC49084026
:1008B000DA49486008460068DA490840D7490860C4
:1008C0000846006820F4802008600846406820F44C
:1008D000FE0048604FF41F0088607047CF490968E8
:1008E00021F48031CD4A11601146096821F480213C
:1008F0001160B0F5803F03D0B0F5802F0ED106E037
:10090000C649096841F48031C44A116007E0C3490F
:10091000096841F4A021C14A116000E000BF00BF96
:10092000704710B501460022002300204A11012A19
:1009300002D1BA4C236806E0022A02D1B74C236ADE
:1009400001E0B64C636A01F01F02012494401C4090
:100950000CB1012000E0002010BD38B5002000904F
:100960000024002500BF3120FFF7DBFF054600987B
:10097000401C00900098B0F5A06F01D0002DF2D07F
:100980003120FFF7CEFF08B1012400E0002420460B
:1009900038BD01460020A14A106820F0F80040EA66
:1009A000C10010607047A0490860704702460020EF
:1009B0009A4B586820F47C1042EA01031843974B85
:1009C0005860704798490866704701460020934A6E
:1009D000506820F003000843506070478F4840681B
:1009E00000F00C007047014600208C4A506820F04F
:1009F000F00008435060704701460020874A506865
:100A000020F4E06008435060704701460020834AAC
:100A1000506820F4605040EAC1005060704729B12E
:100A20007E4A527A02437D4B5A7204E07B4A527AE4
:100A300082437A4B5A7270477B49D83108607047BD
:100A400001460020754A506820F440400843506039
:100A500070470021714A20321170704A82F82010CC
:100A6000012802D004280AD104E001216B4A203277
:100A7000117005E00521694A2032117000E000BFC5
:100A800000BF70476949086070476449096A0143BB
:100A9000624A11627047654944390860704730B551
:100AA00000210022002400235C4D6D6805F00C013C
:100AB00021B1042905D0082923D105E05C4D05604A
:100AC00022E05B4D05601FE0544D6D6805F4701227
:100AD000524D6D6805F48034022505EB92421CB935
:100AE000544D554305600BE04C4D6D6805F40035E1
:100AF0001DB1504D5543056002E04D4D5543056015
:100B000002E04B4D056000BF00BF444D6D6805F02D
:100B1000F0010909484D6B5C0568DD4045603F4DBB
:100B20006D6805F4E061090A434D6B5C4568DD4082
:100B300085603A4D6D6805F46051C90A3E4D6B5CA5
:100B40004568DD40C560354D6D6805F44041890B51
:100B50003A4D6B5CC568B5FBF3F5056130BD29B155
:100B60002E4A526902432D4B5A6104E02B4A5269C6
:100B700082432A4B5A61704729B1284A926902433D
:100B8000264B9A6104E0254A92698243234B9A617D
:100B9000704729B1214AD2690243204BDA6104E04F
:100BA0001E4AD26982431D4BDA61704729B11B4A44
:100BB000D2680243194BDA6004E0184AD2688243D3
:100BC000164BDA60704729B1144A12690243134B7D
:100BD0001A6104E0114A12698243104B1A6170478E
:100BE00012494039086070470F49C86470470B4983
:100BF000C87170470948406A40F0807007494862F0
:100C0000704701460020054A92680A400AB1012057
:100C100000E00020704701498872704700100240D0
:100C20000000FFF8FFFFF6FE00004242800442424F
:100C300000127A0000093D0014000020240000206A
:100C400010B50446FE48844208D10121C014FFF7C4
:100C5000ADFF0021E014FFF7A9FFC4E0B4F1804F1D
:100C600008D101210846FFF7AEFF00210120FFF760
:100C7000AAFFB8E0F348844208D101210220FFF71F
:100C8000A2FF00210220FFF79EFFACE0EE48844265
:100C900008D101210420FFF796FF00210420FFF76F
:100CA00092FFA0E0E948844208D101210820FFF723
:100CB0008AFF00210820FFF786FF94E0E448844281
:100CC00008D101211020FFF77EFF00211020FFF73F
:100CD0007AFF88E0DF48844208D101212020FFF715
:100CE00072FF00212020FFF76EFF7CE0DA4884428B
:100CF00008D101214014FFF759FF00216014FFF7CC
:100D000055FF70E0D548844209D10121C804FFF79E
:100D10004DFF00214FF40020FFF748FF63E0D0486B
:100D2000844209D101210805FFF740FF00214FF45B
:100D30008010FFF73BFF56E0CA48844209D10121E9
:100D40004805FFF733FF00214FF40010FFF72EFF97
:100D500049E0C548844208D101214020FFF733FF14
:100D600000214020FFF72FFF3DE0C048844208D11A
:100D700001218020FFF727FF00218020FFF723FFBC
:100D800031E0BB48844208D101218015FFF71BFFE9
:100D90000021A015FFF717FF25E0B648844209D1CE
:100DA00001210804FFF702FF00214FF48030FFF714
:100DB000FDFE18E0B048844209D101214804FFF744
:100DC000F5FE00214FF40030FFF7F0FE0BE0AB48DA
:100DD000844208D101218804FFF7E8FE00214FF486
:100DE0008020FFF7E3FE10BD00220288944B98425A
:100DF0000ED0994B98420BD0B0F1804F08D0914B58
:100E0000984205D0904B984202D0904B984204D122
:100E10004FF68F731A404B881A438D4B984207D078
:100E20008C4B984204D04FF6FF431A40CB881A43AC
:100E300002808B8883850B880385814B98420BD079
:100E4000854B984208D08B4B984205D08A4B9842EC
:100E500002D08A4B984201D10B7A03860123838208
:100E6000704770B5002400220023058C4FF6FE76F3
:100E700035400584028C8388048B4FF68F752C4097
:100E8000B51E2C400D882C43751E2A400D892A431F
:100E90004D882A436A4DA8420BD06F4DA84208D016
:100EA000744DA84205D0744DA84202D0734DA8429B
:100EB00013D14FF6F7752A404D892A434FF6FB753B
:100EC0002A408D882A434FF6FF652B404FF6FF5589
:100ED0002B408D892B43CD892B4383800483CD8880
:100EE0008586028470BD70B5002400220023058C25
:100EF0004FF6EF7635400584028C8388048B48F6E4
:100F0000FF752C404FF6FF452C400D884FF6FF76BD
:100F100006EA05252C434FF6DF752A400D8906EABF
:100F200005152A434D8806EA05152A43444DA84273
:100F300002D0494DA8421DD14FF67F752A404D89F8
:100F40004FF6FF7606EA05152A434FF6BF752A408D
:100F50008D8806EA05152A434FF6FF352B404FF2E0
:100F6000FF752B408D8906EA85052B43CD8906EA5E
:100F700085052B4383800483CD880587028470BD5B
:100F800070B5002400220023058C4FF6FF66354023
:100F90000584028C8388848B4FF68F752C404FF626
:100FA000FC752C400D882C434FF6FF552A400D89C7
:100FB0004FF6FF7606EA05252A434D8806EA052501
:100FC0002A431F4DA84202D0234DA8421DD14FF203
:100FD000FF752A404D894FF6FF7606EA05252A431C
:100FE0004FF6FF352A408D8806EA05252A434EF63E
:100FF000FF752B404DF6FF752B408D8906EA0515D0
:101000002B43CD8906EA05152B4383808483CD8845
:101010008587028470BD70B5002200230024058CF2
:101020004EF6FF7635400584038C8488828B48F623
:10103000FF752A404FF6FF452A400D8820E000004A
:10104000002C01400004004000080040000C00405B
:10105000001000400014004000340140004C0140EA
:10106000005001400054014000180040001C0040A6
:101070000020004000400140004401400048014081
:101080004FF6FF7606EA05252A434DF6FF752B40FD
:101090000D8906EA05352B434D8806EA05352B43B5
:1010A000FA4DA84202D0FA4DA84208D14BF6FF757E
:1010B0002C408D894FF6FF7606EA85152C438480F7
:1010C0008283CD88A0F84050038470BD828B4FF29C
:1010D000FF331A408283828B4FF6FF7303EA0123AA
:1010E0001A4382837047F0B50C4615460022002152
:1010F0000026078C4EF6FF7C07EA0C070784828BDC
:10110000018C4FF6FF7707EA043640F6FF473A4076
:101110004FF6FF7707EA05273A434FF6FF7707EACE
:1011200003373A43D94FB8420ED0D94FB8420BD00B
:10113000B0F1804F08D0D74FB84205D0D64FB84253
:1011400002D0D64FB84206D14DF6FF77394046F46B
:101150008057394305E047F6FF57394044F480573C
:10116000394382830184F0BD828B4FF6F3731A40BA
:101170008283828B0A4382837047F0B50C46154602
:10118000002200210026078C4FF6FF6C07EA0C07AF
:101190000784828B018C4FF6FF7707EA04264FF60F
:1011A0000C773A404FF6FF7707EA03172F433A438D
:1011B000B64FB8420ED0B64FB8420BD0B0F1804F08
:1011C00008D0B44FB84205D0B34FB84202D0B34FA5
:1011D000B84206D14FF6FF57394046F4807739437D
:1011E00005E04FF2FF57394044F48077394382835A
:1011F0000184F0BD028B4FF2FF331A400283028B51
:101200004FF6FF7303EA01231A4302837047F0B5D8
:101210000C461546002200210026078C4FF6EF7C75
:1012200007EA0C070784028B018C4FF6FF7707EA69
:10123000041640F6FF473A404FF6FF7707EA0337B8
:101240003A434FF6FF7707EA05273A438F4FB842F4
:101250000ED08F4FB8420BD0B0F1804F08D08D4FD9
:10126000B84205D08C4FB84202D08C4FB84206D15C
:101270004FF6DF77394046F01007394305E04FF667
:101280005F77394044F01007394302830184F0BD91
:10129000028B4FF6F3731A400283028B0A430283D8
:1012A0007047F0B50C46154600220021068C4FF61B
:1012B000FE773E400684028B018C4FF60C7632405E
:1012C0007E1C06EA03162E433243704EB0420ED007
:1012D0006F4EB0420BD0B0F1804F08D06D4EB0428F
:1012E00005D06D4EB04202D06C4EB04206D14FF6E2
:1012F000FD76314044F00106314305E04FF6F576C6
:10130000314044F00106314302830184F0BD70B5E1
:1013100005460C465D4885420ED05D4885420BD09F
:10132000B5F1804F08D05B48854205D05A488542C8
:1013300002D05A48854200D100E000BF208850B951
:101340002389A28861882846FFF7ABFFE1882846F9
:10135000FFF79EFF25E0208804280AD12389A28870
:1013600061882846FFF753FFE1882846FFF742FFD0
:1013700017E0208808280AD12389A2886188284696
:10138000FFF7FBFEE1882846FFF7EEFE09E0238920
:10139000A28861882846FFF7A6FEE1882846FFF765
:1013A00095FE70BD2DE9F04105460C46002601274B
:1013B000608808B9022600E00026A088012801D133
:1013C000022700E001272088A0B92389A28861882C
:1013D0002846FFF766FFE1882846FFF759FF238973
:1013E0003A4631462846FFF712FFE1882846FFF7C4
:1013F00001FF13E02389A28861882846FFF707FFD1
:10140000E1882846FFF7F6FE23893A46314628460A
:10141000FFF747FFE1882846FFF73AFFBDE8F08174
:101420000A884B881A438B881A43CB881A430B8946
:101430001A434B891A438B891A43A0F844207047FA
:101440004FF6FF71818000210180C18041800172CF
:1014500070470021018041808180C18001814181EC
:101460008181C181704700210180418001218180FB
:101470000021C1800181704700210180418081806D
:10148000C18001814181818170470000002C0140B1
:10149000003401400004004000080040000C0040FF
:1014A00021B1028842F00102028004E002884FF676
:1014B000FE731A400280704731B1B0F8442042F404
:1014C0000042A0F8442005E0B0F84420C2F30E0228
:1014D000A0F8442070471AB183890B43838102E04E
:1014E00083898B43838170478182704741EA02037D
:1014F000A0F8483070471AB183890B43838102E01A
:1015000083898B438381704701894FF6F8721140BC
:10151000018170470A46002101894FF68F731940F7
:1015200011430181704730B504460D4629462046D7
:10153000FFF7F0FF208940F00700208130BD2DE942
:10154000F04104460D4616461F46602D06D13B4627
:10155000012231462046FFF75AFE05E03B460122B4
:1015600031462046FFF79DFE29462046FFF7D2FF71
:10157000208940F007002081BDE8F08130B50C469D
:1015800000210189C9B24FF6FF7505EA032515430D
:1015900025432943018130BD2DE9F04105460E4622
:1015A00017469846002443463A4631462846FFF7F8
:1015B000E5FF2C894FF6F870044044F007044FF61D
:1015C0008F70044044F070042C81BDE8F081F0B5C8
:1015D00004460D4616461F463B46324629462046DF
:1015E000FFF7CCFF208940F480402081F0BD0185C9
:1015F000828270470A46002101884FF68F73194096
:10160000114301807047F0B50C4615461E46002177
:10161000002200230189028B038C4FF6F8773940B2
:1016200021434FF6FC473A4040F201173A434FF648
:10163000DD773B404FF6FF7707EA06172F433B4322
:10164000018102830384F0BD0A460021018B4FF61D
:101650008F7319401143018370470A460021018BA3
:1016600048F6FF7319404FF6FF7303EA022319434C
:10167000018370470A460021818B4FF68F73194012
:101680001143818370470A460021818B48F6FF731E
:1016900019404FF6FF7303EA022319438183704711
:1016A00021B1028842F08002028004E002884FF6F5
:1016B0007F731A400280704721B1828842F0040291
:1016C000828004E082884FF6FB731A408280704764
:1016D00021B1828842F00802828004E082884FF6BD
:1016E000F7731A408280704721B1828842F001026C
:1016F000828004E082884FF6FE731A408280704731
:101700000A460021018B4FF6F773194011430183FC
:1017100070470A460021018B4FF2FF7319404FF6C4
:10172000FF7303EA02231943018370470A4600212D
:10173000818B4FF6F77319401143818370470A4636
:101740000021818B4FF2FF7319404FF6FF7303EABC
:1017500002231943818370470A460021018B4FF60B
:10176000FB7319401143018370470A460021018B26
:101770004FF6FF3319404FF6FF7303EA0223194374
:10178000018370470A460021818B4FF6FB73194095
:101790001143818370470A460021818B4FF6FF3346
:1017A00019404FF6FF7303EA022319438183704700
:1017B0000A460021018B4FF67F73194011430183C4
:1017C00070470A460021018BC1F30E014FF6FF73EB
:1017D00003EA02231943018370470A460021818BE3
:1017E0004FF67F7319401143818370470A460021E9
:1017F000818BC1F30E014FF6FF7303EA02231943F5
:10180000818370470A460021018C4FF6FD73194011
:101810001143018470470A460021018C4FF6F7738B
:1018200019401143018470470A460021018C4FF68C
:10183000DF7319404FF6FF7303EA02131943018463
:1018400070470A460021018C4FF67F7319404FF60E
:10185000FF7303EA02131943018470470A4600210B
:10186000018C4FF6FF5319404FF6FF7303EA022332
:101870001943018470470A460021018C4FF2FF731F
:1018800019404FF6FF7303EA02231943018470479E
:101890000A460021018C4DF6FF7319404FF6FF7385
:1018A00003EA023319430184704730B50023012451
:1018B0008C40A3B2048C9C430484048C02FA01F58E
:1018C000ADB22C43048430BD30B5002304248C40D9
:1018D000A3B2048C9C430484048C02FA01F5ADB2DB
:1018E0002C43048430BD70B5034600200024184604
:1018F000183001258D40ACB21D8CA5431D8409B163
:10190000082909D100EB6100056825F07005056024
:101910000568154305600EE00D1FC5F34E0528440C
:10192000056825F4E045056005684FF6FF7606EA90
:1019300002263543056070BD21B1028842F00202E3
:10194000028004E002884FF6FD731A40028070475F
:1019500021B1028842F00402028004E002884FF6BE
:10196000FB731A400280704721B1828842F08002E6
:10197000828004E082884FF67F731A40828070472D
:1019800002884FF6F7731A40028002880A430280E9
:10199000704782884FF68F731A40828082880A438C
:1019A0008280704702894FF6F8731A4002810289DB
:1019B0000A430281704702894FF67F731A40028101
:1019C00002890A430281704781847047818570478C
:1019D000818670470187704781877047A0F8401063
:1019E000704702884FF6FF431A40028002880A437C
:1019F000028070470146888E70470146088F704705
:101A00000146888F70470146B1F840007047014693
:101A1000888C70470146088D704702460020138A63
:101A20000B400BB1012000E000207047CA43028246
:101A3000704730B50246002000230024158A05EACD
:101A40000103958905EA010413B10CB1012000E0FE
:101A5000002030BDCA4302827047000010B5044622
:101A6000FB48844209D101218803FFF79FF8002138
:101A70004FF48040FFF79AF832E0F648844209D1EB
:101A800001214804FFF79FF800214FF40030FFF7D1
:101A90009AF825E0F048844209D101218804FFF733
:101AA00092F800214FF48020FFF78DF818E0EB4802
:101AB000844209D10121C804FFF785F800214FF4C1
:101AC0000020FFF780F80BE0E548844208D10121AF
:101AD0000805FFF778F800214FF48010FFF773F83E
:101AE00010BD2DE9F04786B005460E460024A246FB
:101AF00000BFA1460027B08900B100BF2F462C8A45
:101B00004CF6FF700440F08804432C82AC894EF6FA
:101B1000F3100440B08831890843718908430443B5
:101B2000AC81AC8A4FF6FF400440B0890443AC82DC
:101B300001A8FEF7B4FFC648874202D1DDF810A025
:101B400001E0DDF80CA0A88900F4004040B10AEBE8
:101B5000CA0000EB0A1031684900B0FBF1F807E059
:101B60000AEBCA0000EB0A1031688900B0FBF1F8FB
:101B70006420B8FBF0F004012009642101FB108906
:101B8000A88900F4004040B1322000EBC900B0FB4E
:101B9000F1F000F00700044308E0322000EB0910E8
:101BA0006421B0FBF1F000F00F0004432C8106B07B
:101BB000BDE8F0874FF41651016000218180C1809B
:101BC00001810C21418100218181704710B50246BD
:101BD0000020108A4FF2FF0318400B884C882343E3
:101BE0008C882343CC8823431843108210BD0021E6
:101BF000018041808180C180704721B1828942F497
:101C00000052828104E082894DF6FF731A4082817E
:101C10007047F0B50346002400260025002040F65A
:101C20006A17B94200D100BF1846C1F3421401F04F
:101C30001F06012707FA06F5012C01D10C3004E03C
:101C4000022C01D1103000E014301AB107682F4384
:101C5000076002E00768AF430760F0BD1AB1838AEE
:101C60000B43838202E0838A8B4383827047028A1C
:101C70004FF6F0731A400282028A0A4302827047CA
:101C800082894FF2FF731A40828182890A438281DE
:101C9000704721B1828942F00202828104E0828988
:101CA0004FF6FD731A4082817047028A4FF6DF7348
:101CB0001A400282028A0A430282704721B1028AD4
:101CC00042F48042028204E0028A4BF6FF731A401B
:101CD00002827047C1F308028280704701468888FB
:101CE000C0F308007047818941F00101818170478C
:101CF000028BD2B20283028B42EA01220283704736
:101D0000028B02F47F420283028B0A4302837047F4
:101D100021B1828A42F02002828204E0828A4FF658
:101D2000DF731A408282704721B1828A42F010022A
:101D3000828204E0828A4FF6EF731A4082827047F3
:101D400021B1828A42F00802828204E0828A4FF640
:101D5000F7731A408282704721B1828942F40042AF
:101D6000828103E08289C2F30E028281704721B131
:101D7000828A42F40062828204E0828A4FF2FF7318
:101D80001A4082827047828A4FF6FB731A40828221
:101D9000828A0A438282704721B1828A42F002021B
:101DA000828204E0828A4FF6FD731A408282704775
:101DB00002460020B1F5007F00D100BF13880B4020
:101DC0000BB1012000E00020704701F40072B2F571
:101DD000007F00D100BFCA430280704770B5024641
:101DE000002400230025002040F66A16B14200D1ED
:101DF00000BFC1F3421501F01F03012606FA03F3E9
:101E0000012D02D19689334006E0022D02D1168AB7
:101E1000334001E0968A33400C12012606FA04F49E
:101E20001688344013B10CB1012000E0002070BDD1
:101E300010B50022002340F66A14A14200D100BF71
:101E40000A1201249440A3B2DC43048010BD0000B8
:101E5000003801400044004000480040004C004071
:101E60000050004000F0B4F800F03DFC00F095FC9C
:101E700000F0D2F900F05CFD01E000F03AFEFCE772
:101E8000704700BFFEE700BFFEE700BFFEE700BFF0
:101E9000FEE7704770477047704710B50120FEF7A6
:101EA00035FB80B145480078C0F3800040B144481C
:101EB000006880F0200042490860012000F0B6F977
:101EC0000120FEF734FB10BD10B54FF40050FEF7B3
:101ED0001DFB88B139480078C0F3800040B938480C
:101EE000006880F0010036490860002000F09EF98B
:101EF0004FF40050FEF71BFB10BD10B540F225510A
:101F00003048FFF76BFF002857D02E48FFF7E6FE5A
:101F1000C4B22A48007800F0010000284DD12748BB
:101F20000078C0F38000002847D0082C1AD126483A
:101F30000078002841D00821224800F072FC2021BE
:101F4000204800F06EFC08211E4800F06AFC1E4884
:101F50000078401E1C49087000201C491A4A12785B
:101F600088542AE018480078FF280FDA17481649E5
:101F7000097844540021024613480078401C11544B
:101F800011480078401C1049087008E00E4800789D
:101F9000401E0E490C5408210A4800F042FC0D2C4A
:101FA00007D10648007820F00200801C0349087021
:101FB00003E02146034800F034FC10BD2C00002053
:101FC0000C0C0140003801403C000020780000204B
:101FD00008B501210820FEF7CFFD2020ADF8000054
:101FE00010208DF8030003208DF802006946114887
:101FF000FEF706FB0120ADF8000069460D48FEF72C
:10200000FFFA0220ADF8000069460A48FEF7F8FA28
:1020100020210848FEF7A1FB01210648FEF79DFBA1
:1020200002210448FEF799FB08BD2022014B14331E
:102030001A607047000C014008B54FF4E060FEF7ED
:1020400083F91C208DF8000001208DF801008DF827
:1020500002008DF803006846FEF77BF908BD08B55D
:1020600001210420FEF788FD0820ADF800001820AB
:102070008DF8030003208DF802006946FE48FEF744
:10208000BFFA01210820FEF777FD4FF48040ADF83C
:10209000000010208DF8030003208DF8020069462F
:1020A000F648FEF7ADFA4FF48041F448FEF757FBCF
:1020B00001211020FEF760FD1020ADF800008DF822
:1020C000030003208DF802006946ED48FEF798FAF8
:1020D0001021EB48FEF743FB08BD00B587B0012196
:1020E0000220FEF756FD04A8FFF7AAF942F20F708E
:1020F000ADF814004720ADF810000020ADF8160030
:10210000ADF8120004A9DF48FEF76EFE7020ADF8AE
:1021100000000120ADF802000020ADF8040041F2FB
:102120008730ADF806000220ADF808000020ADF8B9
:102130000C006946D348FEF794FE6946D148FEF785
:10214000D2FE0821CF48FFF7DBFA0821CD48FFF780
:10215000E0FA0121CB48FFF7A3FA0121C948FFF7B4
:10216000F7FB0121C748FFF775FC01221146C5485E
:10217000FFF7B1F90021C348FFF792F907B000BD9E
:1021800000B587B001210220FEF703FD04A8FFF788
:1021900057F90920ADF814004720ADF810000020D1
:1021A000ADF81600ADF8120004A94FF08040FEF71C
:1021B0001BFE7020ADF800000120ADF802000020E9
:1021C000ADF804000420ADF806000220ADF80800C8
:1021D0000020ADF80C0069464FF08040FEF71BFF71
:1021E0000821C806FFF7ABFA01218807FFF758FA64
:1021F00001218807FFF7ACFB01218807FFF72AFCC4
:10220000012211469007FFF766F900214FF0804048
:10221000FFF746F907B000BD10B5FFF720FFFFF745
:102220000BFFFFF7ADFFFFF758FF10BD10B50446D9
:102230006CB110219248FEF790FA9348007820F094
:10224000040091490870914801F0E6FA0DE0102170
:102250008B48FEF784FA8C48007820F00400001DBB
:10226000894908708A4801F0D7FA10BD10B50446B4
:1022700014210807FFF7AAFB0A214807FFF7AAFB6A
:1022800001218807FFF70CF910BD2DE9F04F89B047
:1022900004460D4616469B46002C08DA7D48007819
:1022A00020F0080008307B490870644205E0794856
:1022B000007820F008007749087076480078C0F36D
:1022C000C00028B94FF480416C48FEF748FA04E09A
:1022D0004FF480416948FEF740FA012C1FD1A01E3F
:1022E0006C4948610846007820F00700801C08709F
:1022F0004FF47A7048606448007820F00100401C78
:102300006149087014210807FFF760FB0A2148079C
:10231000FFF760FB01218807FFF7C2F882E0002C7D
:10232000FCD047F6B720B0FBFBF05A4908615A4889
:10233000B0FBF5F0019000F09EFF074601F0EFFEC4
:102340000022564BCDE9020100F0A3FE0022544BBF
:10235000CDE9040100F00FFFCDE9060100F098FF80
:102360004C49486005EB450040006421B0FBF1F1A9
:102370000BFB0BF0B0FBF1F9B9F1000F01D14FF0FD
:10238000010904FB06F0A919B0FBF1FABAF1000F3C
:1023900001D14FF0010ACA4504D8AAEB04003D4917
:1023A000C86006E009FB05F0B0FBF6F04042394991
:1023B000C8603848C06818B94FF0FF303549C86068
:1023C0003448C06820443349886008464068096939
:1023D00088420AD82F4800692E494860084600788C
:1023E00020F00700C01C087006E02A48007820F0A2
:1023F0000700401C274908700020264948612248F0
:10240000007820F00100401C1F49087014210807C3
:10241000FFF7DCFA0A214807FFF7DCFA01218807F9
:10242000FFF73EF809B0BDE8F08F012805D11D493E
:102430000968491E1B4A116004E01A490968491CD1
:10244000184A1160704710B501218807FFF7F1FAAB
:1024500000287DD001218807FFF7FCFA0D4840686D
:10246000C0F34F00104908800A4880880906888513
:10247000054800781AE0000000080140000C014007
:1024800000100140000400402C000020F041000832
:102490003842000860000020ACDF5F000068BA40EE
:1024A000000059402800002040000040C0F3800098
:1024B00028B97B48007820F00700794908707848EF
:1024C000007800F0070030B101281DD0022879D033
:1024D000032818D177E0002072490860724908602B
:1024E0004FF08040008C20F480504FF080410884F1
:1024F00000214FF08040FEF7D3FF6C48007820F0B9
:1025000001006A490870C7E04FF08040008C40F439
:1025100080504FF08041088461490978C1F3C000C0
:10252000FFF783FF5F480068401C5E4908605C4815
:102530004069401C5A494861084640685A49096840
:10254000022202FB0011564840698000401C00E056
:10255000A5E091FBF0F0524949680C1A50484068D8
:102560005149096802FB00114D4840698000401C38
:1025700091FBF0F200FB12104B490860484880685C
:102580004849096888420AD84548C06844494861B2
:102590000846007820F00700801C087011E04048D1
:1025A0000069A0420DD3424804603D480469002000
:1025B0003D4908603A48007820F00700C01C3849BF
:1025C000087069E025E04FF08040008C40F48050B6
:1025D0004FF08041088432490978C1F3C000FFF709
:1025E00024FF30480068401C2E4908602C480469CC
:1025F0008068096888420BD82948C0682849486122
:102600002B4804680846007820F00700801C0870FA
:1026100042E04FF08040008C40F480504FF0804109
:1026200008841F490978C1F3C000FFF7FEFE1D486A
:102630000068401C1B49086019484069401C184943
:1026400048610846406818490968022202FB0011E7
:10265000134840698000401C91FBF0F01049496824
:102660000C1A0F4840681049096802FB00110C4819
:1026700040698000401C91FBF0F200FB12100A49F7
:10268000086007484069002805DB0548007820F00D
:1026900007000349087000BF00BF0148446010BD37
:1026A0006000002034000020380000202C000020B2
:1026B0003000002008B54FF4C060FDF745FE06204D
:1026C0008DF8000001208DF801008DF802008DF8D2
:1026D00003006846FDF73DFE28208DF8000068469F
:1026E000FDF737FE08BD0EB501210520FEF744FABF
:1026F000FFF7E0FF0120ADF8080004208DF80B0083
:1027000002A91A48FDF77CFF00210846FEF78EF863
:102710000120009000208DF8040008208DF80500AD
:1027200001208DF806006846FDF78AFE4FF4005040
:10273000ADF8080004208DF80B0002A90C48FDF745
:102740005FFF0D210220FEF771F84FF4005000905A
:1027500000208DF804000C208DF8050001208DF874
:1027600006006846FDF76CFE0EBD00000008014043
:102770000010014008B54FF4A060FDF7E5FD2520ED
:102780008DF8000001208DF801008DF802008DF811
:1027900003006846FDF7DDFD08BD00B585B00121E9
:1027A0000420FEF7E9F901218803FEF7E5F94FF46B
:1027B0000070ADF8100018208DF8130003208DF87C
:1027C000120004A95648FDF71BFF4FF48060ADF8D6
:1027D000100004208DF8130004A95148FDF710FFE4
:1027E0004FF4E13000900020ADF80400ADF8060091
:1027F000ADF80800ADF80C000C20ADF80A006946F1
:102800004848FFF76EF9FFF7B5FF012240F2255166
:102810004448FFF7FEF901214248FFF7EEF905B001
:1028200000BD70B504460D4629462046FFF752FA12
:1028300000BF80212046FFF7BBFA0028F9D070BD09
:102840002DE9F04107460D461646002405E0295DB6
:102850003846FFF7E6FF601CC4B2B442F7DB00BFA6
:1028600040213846FFF7A4FA0028F9D0BDE8F081EE
:1028700070B506460C46002500BF615D3046FFF787
:10288000D0FF6D1C605D0028F7D100BF40213046AD
:10289000FFF78EFA0028F9D070BD2DE9F04105460A
:1028A0000C46260AE7B231462846FFF713FA00BF66
:1028B00080212846FFF77CFA0028F9D039462846BF
:1028C000FFF708FA00BF80212846FFF771FA0028B9
:1028D000F9D0BDE8F0810020134908701349124A6D
:1028E00012788854704770B504460D46E1B20D4821
:1028F000FFF7F0F900BF80210A48FFF759FA0028D6
:10290000F9D0204670BD10B5044600BF202105480F
:10291000FFF74EFA0028F9D00248FFF7DFF910BDA3
:1029200000080140003801403C00002078000020F1
:1029300010B5D04800F070FFCFA000F06DFFD2A01E
:1029400000F06AFFD64800F067FFD64800F064FF49
:10295000D54800F061FFD54800F05EFFD4A000F03C
:102960005BFFDDA000F058FFE9A000F055FFF8A0E4
:1029700000F052FFFE4800F04FFF10BD2DE9F04F70
:1029800087B004460D4616469946284600F062FC7C
:102990000022F84BCDE9040100F07BFB82460022C7
:1029A000F54B00F0E8FB07463A460B46F3A000F073
:1029B00033FF304600F04EFC0022EE4BCDE904011F
:1029C00000F067FB07460022EB4B00F0D4FB824689
:1029D00052460B46EFA000F01FFF484600F03AFCBD
:1029E0008246F24AF24B00F054FB07460022E24BCB
:1029F00000F0C1FBCDE90401484600F02BFC07467E
:102A00000022DC4B00F045FB82460022DA4B00F04E
:102A1000B2FBCDE90201DDE90401CDE90001E5A049
:102A2000DDE9022300F0F8FEEAA0109900F0F4FEC0
:102A30002146ECA000F0F0FEF0A0119900F0ECFEB1
:102A400007B0BDE8F08F01B502E00098401E00908D
:102A500000980028F9D108BD30B585B00024ECA25B
:102A6000D2E900109268CDE90302029100253AE014
:102A70000B2C00D1002405E0E8480078C0F380006A
:102A800000B905E0E548007800F001000028F3D126
:102A900000BFE2480078C0F3800000B925E0E048BC
:102AA000FFF7D1FF02A9095744F6206201FB02F0AB
:102AB00040F6B8334FF4FA421146FFF7E6FB002127
:102AC00002A8005744F62062504340F6B8334FF452
:102AD000FA42CDE900011146D2480068FFF74EFFE7
:102AE000601CC4B26D1CC82DC2DB00BF002405B041
:102AF00030BD2DE9FC5F0024A146A246A346CA488A
:102B0000007890B10020C8490870C8480068C849DA
:102B10000968CDE90010C7480368C7480268C7487C
:102B20000168C0480068FFF729FFBC480078C0F37F
:102B30004000002877D0C24800786D2875D1C04881
:102B40004078202815D1BE48801C00F095FAB8497D
:102B50000860B8480368B8480268B8480168B448D3
:102B60000068FFF792FB4FF0010BB6A000F054FE97
:102B7000F5E1B34840786F28FAD1B14880787628DB
:102B8000F6D1AF48C0786528F2D1AD480079202849
:102B9000EED10625AA48401D00F06EFAA44908604F
:102BA00000E06D1CA648405D202803D0A448405D8D
:102BB0000D28F6D16D1CA249481900F05DFA9F4915
:102BC000086000E06D1C9E48405D202803D09C48B2
:102BD000405D0D28F6D16D1C9949481900F04CFA5A
:102BE0009549086000E06D1C9548405D202803D0A1
:102BF0009348405D0D28F6D16D1C9149481900F0AD
:102C00003BFA8C490860084603688B4802688B4889
:102C1000016887480068FFF738FB4FF0010B89A077
:102C200000F0FAFD9BE1DDE1FFE7854800786128CF
:102C30001ED18348407820289AD18148801C00F01A
:102C40001BFA0446472C93DBB4F5FA4F90DC7B4823
:102C50000460006800F0FEFA07460022454B00F0D1
:102C600018FA0022444BCDE9000100F084FAEDE0AF
:102C7000F6E000001C4400080A0DCAE4C8EBC3FCDF
:102C8000C1EEA3BA000000000A0D3C203F203E2008
:102C90002020202020202DB0EFD6FAB2CBB5A50001
:102CA000CC4200081843000864430008B043000801
:102CB0000A0D705B646174615D20202020202DC9A5
:102CC000E8D6C3B6E6BBFAB5C4CEBBD6C328B7B602
:102CD000CEA73A302D3229000A0D6D6F7665205B44
:102CE00073746570735D205B616363656C5D205B0D
:102CF000646563656C5D205B73706565645D205B16
:102D00006D6F746F725F706F736974696F6E5D0061
:102D10000A0D2020202020202020202020202DD21D
:102D2000D4C9E8B6A8B5C4B2BDCAFDA1A2BCD3CB74
:102D3000D9B6C8A3ACBCF5CBD9B6C8A3ACD7EEB452
:102D4000F3CBD9B6C8BFAACABCD4CBB6AF0000007B
:102D50000A0D3C456E746572BCFC3E2020202DD6C9
:102D6000D8B8B4D7EEBAF3D2BBB4CEB6AFD7F7006B
:102D7000804200080000F03F000059400A0DBCD31B
:102D8000CBD9B6C83A252E32667261642F735E3293
:102D9000000000002020BCF5CBD9B6C83A252E3261
:102DA000667261642F735E32000000009A999999EF
:102DB000991923402020D7EEB4F3CBD9B6C83A25D1
:102DC0002E32667261642F7328252E326672706D02
:102DD000290000002020D2C6B6AFB2BDCAFD3A25F8
:102DE000640000000A0DB5E7BBFAB5B1C7B0CEBBB1
:102DF000D6C33A2025640D0A000000000A0DB6E68D
:102E0000BBFAB5C4CEBBD6C33A2025640D0A000078
:102E10000202FEFE0202FCFC041400002C00002052
:102E2000FFFF0F0028000020400000205400002079
:102E300044000020500000204C00002048000020EA
:102E4000780000200A0D20200000000005462A46D8
:102E50000B46AFF2D80000F0DFFC4FF0010B7EE034
:102E600061480078642828D15F484078202876D1CE
:102E70005D48801C00F000F98146B9F1470F6EDB18
:102E8000B9F5FA4F6BDC5948C0F80090006800F0C3
:102E9000E1F90022564BCDE9000100F0FAF80546B1
:102EA0000022544B00F067F907463A460B4652A001
:102EB00000F0B2FC4FF0010B51E04B480078732852
:102EC00029D149484078202849D14748801C00F042
:102ED000D3F88246BAF10C0F41DB44F620608245FC
:102EE0003DDC4B48C0F800A0006800F0B3F907468D
:102EF00000223F4B00F0CDF800223E4BCDE900010F
:102F000000F039F905462A460B4642A000F084FC41
:102F10004FF0010B23E0344800780D280CD13C48D9
:102F20000368324802684148016841480068FFF779
:102F3000ACF94FF0010B12E02B4800783F2804D188
:102F4000FFF7F6FC4FF0010B09E0274800787428E2
:102F500004D1FFF781FD4FF0010B00E000BFBBF192
:102F6000010F04D033A000F057FCFFF7E1FC384814
:102F7000007820F0020036490870FFF7ACFC3448B6
:102F8000007800F0010068B331480078C0F3800099
:102F900010B130A000F040FC05E02D480078C0F3EF
:102FA000800000B905E02A48007800F00100002800
:102FB000F3D100BF26480078C0F3800090B12AA06A
:102FC00000F02AFC2A48006819490968CDE9001078
:102FD0000F480368054802681448016825480068DE
:102FE000FFF7CCFCBDE8FC9F780000204C000020DF
:102FF0000000F03F000059400A0DBCF5CBD9B6C81F
:103000003A252E32667261642F735E320000000032
:10301000500000200A0DD7EEB4F3CBD9B6C83A253C
:103020002E32667261642F73000000004800002099
:10303000440000200A0D20CAE4C8EBD3D0CEF3A38D
:10304000ACC7EBD6D8D0C2CAE4C8EB2E2E2E0000F7
:103050002C0000200A0DB5E7BBFAD5FDD4DAD4CB9D
:10306000D0D02E2E2E0000004F4B0A0D0000000085
:10307000540000202800002070B5064600F0DCFB5C
:10308000046805460A220021304600F071F92C60E0
:1030900070BD2DE9FE4F81EA030404F0004421F0E5
:1030A000004100944FF0000B23F0004350EA01046C
:1030B0005ED052EA03045BD0C3F30A54C1F30A554D
:1030C0002C44A4F2F3340194A0FB0254C1F3130185
:1030D00041F48011C3F3130343F4801301FB024452
:1030E00000FB034E840A970A44EA815447EA835757
:1030F000A4FB076802958D0A05FB07854FEA932C10
:1031000004FB0C542705029D4FEA065847EA163780
:10311000B5EB08056EEB070C870E920E47EA811798
:1031200042EA8312A7FB0201B6EB0B0164EB000439
:103130002B0D43EA0C335E1844EB1C50DA46514623
:10314000E7FB0201C5F313044FEA0B3343EA1453C0
:103150004FEA0432019C43EA0603A4F10C040294F2
:10316000009CCDE900B400F04AF903B0BDE8F08F4F
:1031700000200146F9E72DE9F04D81EA030404F04F
:10318000004B21F0004514464FF0000A23F00041A7
:1031900050EA050220D054EA01021DD0C5F30A57B7
:1031A0000246C5F31303C1F31300C1F30A5640F4FA
:1031B000801543F48013A7EB0608101BD64608F2CF
:1031C000FD3873EB050002D308F1010801E0921805
:1031D0005B41B8F1000F03DA00200146BDE8F08D35
:1031E00000204FF48011064684460EE0171B73EB57
:1031F000050705D3121B63EB050306434CEA010CDC
:1032000049084FEA300092185B4150EA0107EDD1BE
:1032100052EA030012D082EA040083EA050108435F
:1032200005D0101BAB4106D20122002306E000228C
:103230004FF0004302E06FF0010253101AEB06005A
:103240004CEB085110EB0A0041EB0B01BDE8F04DCF
:1032500000F0C6B80EB5C10F80EAE0700844CA0796
:10326000002140F233438DE80E000A460B4600F081
:10327000C6F803B000BD0EB540F233410291002103
:10328000CDE900110A460B4600F0B9F803B000BDC5
:10329000C1F30A5210B5C1F3130140F2FF3341F4F8
:1032A00080119A4201DA002010BD40F233439A4265
:1032B000A2F2334203DC524200F04AF810BD9040C3
:1032C00010BD30B50B46014600202022012409E044
:1032D00021FA02F59D4205D303FA02F5491B04FACF
:1032E00002F52844151EA2F10102F1DC30BD2DE9E2
:1032F000F05F0546002092469B468846064681467A
:1033000040241BE0284641464746224600F020F86C
:1033100053465A46C01A914110D3114618462246C8
:1033200000F0F6F92D1A67EB01084F4622460120FE
:10333000002100F0EDF917EB00094E41201EA4F129
:103340000104DFDC484631462A464346BDE8F09F8B
:10335000202A04DB203A21FA02F00021704721FAEA
:1033600002F3D040C2F12002914008431946704751
:103370002DE9F04791460F4680460446002614F892
:10338000015B2DB100F0E6F90068405DC007F6D1A1
:103390002B2D02D02D2D18D0641E4A4639462046CA
:1033A00000F0DCF927B13968A14201D1C7F80080EB
:1033B00071054FF002040BD54042002803DD00F0F8
:1033C0003BFA0460A007BDE8F08746F48066E4E7B6
:1033D0000028F8DA00F030FA04606FF00040F2E7FD
:1033E00010B5141E73F1000408DA401C41F100010D
:1033F00092185B411A4301D120F0010010BD2DE964
:10340000F04D92469B4611B1B1FA81F202E0B0FA5A
:1034100080F22032904600F07BF904460F4640EAE5
:103420000A0041EA0B0153465A46084313D011469D
:1034300053EA010019D0C8F140025046FFF788FF57
:1034400005460E4650465946424600F061F908438B
:1034500005D0012004E020463946BDE8F08D00206B
:10346000054346EAE0762C4337430A986305E40AAD
:10347000A0EB08000022FD0A44EA47540A3002D5B6
:1034800000200146E9E7010510196941DDE9084519
:1034900000196941BDE8F04DA2E72DE9FE4F8046D5
:1034A00081EA0300C00F0C46009021F0004123F098
:1034B0000045B8EB0200A94105D24046214690469E
:1034C0001C460B46024623F00040104347D0270D10
:1034D000C7F30A00C3F30A510290401A0190402832
:1034E0006BDAC3F3130040F4801B0098924620B1BE
:1034F0000023D2EB030A63EB0B0B01985946C0F192
:103500004002504600F004F906460D465046594622
:10351000019A00F00CF910EB08006141002487EAE1
:10352000115284EAE7731A4340D0009A62B3019AB9
:10353000012A4FEA075215DC001B61EB02014FF034
:10354000004202EA0752CDE90042001C41F5801119
:1035500032462B46FFF753FF03B0BDE8F08F4046DD
:103560002146F9E7001B61EB0201001C41F58013C5
:1035700000185B412018A2F5001747EB030140EA51
:10358000D570B6196D4111E06D084FEA360645EA6F
:10359000C0754FEA0752001B61EB0201001C41F5A8
:1035A000801149084FEA30000019514132462B463C
:1035B00003B0BDE8F04FFFF713BF009801224000B1
:1035C0000023D0EB020263EBE073009821464FEA40
:1035D000E074B8EB000061EB0401E9E783F000431D
:1035E0005BE781F0004158E72DE9F04D00231A46D2
:1035F0001B1A8A4103DB00200146BDE8F08DC1F3B0
:103600000A52C1F3130141F480154FF0000BD107AA
:1036100002D100186D41521E0027044640F2FF11EE
:10362000384601EB620A3E468046024600204FF4CF
:103630008011FFF78DFEC2197141BB1846EB0100E6
:10364000B4EB030C75EB000C04D3E41A65EB000536
:1036500017460E46241908F101006D4180463428B2
:10366000E3DDF91946EB0600091BA84103D24FF030
:10367000FF32134601E0002213461BEB070046EB26
:103680000A51BDE8F04DFFF7ABBEC1F30A52C1F3DA
:10369000130140F2FF3341F480119A4202DA002014
:1036A0000146704740F233439A42A2F2334202DCB1
:1036B0005242FFF74DBE00F02BB8000030B5041E9B
:1036C00071F1000404DB4FF00044404264EB01015F
:1036D000141E73F1000405DB1C464FF000435242F8
:1036E00063EB0403994208BF904230BD064C074D7E
:1036F00006E0E06840F0010394E8070098471034C2
:10370000AC42F6D3FCF718FD6C4400088C4400086A
:10371000202A04DB203A00FA02F100207047914091
:10372000C2F1200320FA03F3194390407047202A86
:1037300006DBCB17203A41FA02F043EAE07306E0D9
:1037400041FA02F3D040C2F12002914008431946E9
:103750007047000000487047EC4100082DE9F05F19
:1037600082460078002715468B460AF10104B946C7
:10377000302801D09DB113E014F8010B01277828FF
:1037800003D0582801D045B10AE00DB1102D07D162
:103790000027102514F8010B02E0082500E00A2597
:1037A0000026B0460EE005FB080005FB06F10127E8
:1037B00001EB10461FFA80F8B6F5803F00D3B946FA
:1037C00014F8010B294600F018F80028EBDABBF1D9
:1037D000000F05D00FB1641E00E05446CBF8004046
:1037E000B9F1000F06D000F027F802210160C81ED1
:1037F000BDE8F09F48EA0640FAE73A2800D23038A0
:1038000020F02002412A01D3A2F13700884201D3DF
:103810004FF0FF30704700000FB4054B10B503A9FF
:10382000044A029800F0E4F810BC5DF814FB0000B4
:10383000E728000858000020004870475C0000207E
:1038400002E008C8121F08C1002AFAD17047704769
:10385000002001E001C1121F002AFBD170470000C7
:1038600001490860704700005C0000202DE9FF5FFF
:1038700082B00021DDE90430020DDDF840B00343E1
:1038800018D044F61050A2F2FF324243151411989A
:1038900001281FD0A5EB0B00401C5FEA000A4FF087
:1038A00000064E4FDFF83891B046504615D5CAF1A4
:1038B000000413E0119801244AA3012801D16FEA02
:1038C0000B010298119AC0E90031C0E9024206B02A
:1038D000BDE8F09FCBF10000DFE704460021404A3D
:1038E000491842EB0450CDE9001012E0E00707D080
:1038F00032463B4640464946FFF7CBFB8046894669
:1039000032463B4610461946FFF7C3FB06460F46B4
:103910006410002CEAD1DDE90401DDE90023BAF1ED
:10392000000F06DAFFF7B5FB42464B46FFF7B1FB47
:1039300005E0FFF720FC42464B46FFF71CFC04461F
:103940000E460022284BFFF7B9FE03D84FF0FF3098
:10395000014607E00022254B20463146FFF79DFD3A
:10396000FFF793FE102409E0002C0ADB0A22002353
:10397000FFF7BDFC039B30321A55641E50EA01026A
:10398000F2D1641C039AC4F111031444119A012A60
:1039900003D0012208430DD10AE0084304D00020DF
:1039A0004FF0110B119072E7A3EB0B056D1E0DE0AC
:1039B0005B4504DD4FF0000205F1010504E003DA88
:1039C0004FF00002A5F10105002AECD002981199F0
:1039D000C0E90231C0E9004579E700000000144069
:1039E0000000F03F300000000000F0430000E03F26
:1039F0002DE9FF4F95B09B468946064600250FE20C
:103A0000252877D100242746F84A0121059400E0B3
:103A1000044316F8013F203B01FA03F01042F7D1AE
:103A200030782A2811D06FF02F033078A0F13002BF
:103A3000092A16D8059A44F0020402EB820203EB2D
:103A400042021044761C0590EFE759F8042B0592CA
:103A5000002A03DA504244F40054059044F0020472
:103A6000761C30782E2816D116F8010F44F0040485
:103A70002A280DD06FF02F023078A0F13003092BE7
:103A800009D807EB870302EB4303C718761CF3E75B
:103A900059F8047B761C30786C280FD006DC4C2853
:103AA00017D068280DD06A2814D104E0742810D0EB
:103AB0007A280FD10DE044F400140AE044F4801495
:103AC00001E044F440147278824202D104F580147B
:103AD000761C761C307866280BD013DC582877D0FB
:103AE00009DC002875D04528F6D04628F4D04728B0
:103AF0001AD19DE118E0632835D0642879D0652873
:103B000012D195E1702873D008DC6728F1D06928BC
:103B10006FD06E280DD06F2806D1B5E073282CD059
:103B2000752875D0782874D05A46179990476D1C1F
:103B300075E1C4F30250022809D003280DD0D9F84A
:103B4000001004280DD00D6009F1040967E1D9F8CF
:103B50000010EA17C1E90052F6E7D9F800100D800D
:103B6000F2E70D70F0E719F8041B8DF80010002043
:103B70008DF80100EA46012003E059F804AB4FF04C
:103B8000FF3061074FF0000102D40DE008F10101A0
:103B90008846B9420FDA8045F8DB1AF80810002988
:103BA000F4D108E008F1010188468142FADB1AF8F5
:103BB00008100029F6D105985B46A0EB08072146BE
:103BC0003846179A00F094FA284400EB080507E0FD
:103BD0004DE029E10DE01AF8010B5A46179990477C
:103BE000B8F10108F7D25B4621463846179A13E12F
:103BF00042E00A220092C4F302524FF0000A022A65
:103C000008D059F804CB032A4FEAEC710AD00DE032
:103C100029E02AE009F1070121F00702F2E802C1D8
:103C2000914609E00FFA8CFC4FEAEC71042A03D1AB
:103C30004FFA8CFC4FEAEC71002907DA0A460021A2
:103C4000DCF1000C61EB02012D2202E0220504D51B
:103C50002B228DF80420012203E0E20701D020226C
:103C6000F7E7904659E00A2102E010220DE010210A
:103C70004FF0000A00910BE010224FF0000A44F0D0
:103C800004040827009203E008224FF0000A009283
:103C9000C4F30252022A05D059F804CB0021032AAA
:103CA00008D009E009F1070121F00702F2E802C19A
:103CB000914605E01FFA8CFC042A01D10CF0FF0CA0
:103CC0004FF00008220728D5702806D0009B83F00B
:103CD000100353EA0A0305D00EE040228DF80420B9
:103CE000012208E05CEA010206D030228DF80420AF
:103CF0008DF8050002229046009B83F0080353EAEA
:103D00000A030AD15CEA010201D1620705D530221B
:103D10008DF804204FF001087F1E582804D034A0ED
:103D200003900EA802900DE036A0F9E753466046D6
:103D3000009AFFF7DCFA84460398825C0298401EE2
:103D4000029002705CEA0100F0D1029806A9081AFC
:103D500000F1200A600702D524F4803400E0012736
:103D6000574502DDA7EB0A0000E0002000EB0A0146
:103D7000009005984144401A0590E00306D45B4644
:103D80002146179A059800F0B3F90544002706E08C
:103D900001A85A46C05D179990476D1C7F1C474586
:103DA000F6DBE0030CD55B462146179A059800F038
:103DB0009FF9054404E030205A46179990476D1C3E
:103DC0000099481E00900029F5DC08E0029802994D
:103DD0005A460078491C0291179990476D1CBAF118
:103DE0000001AAF1010AF1DC65E1000009280100E7
:103DF0003031323334353637383961626364656661
:103E00000000000030313233343536373839414222
:103E1000434445460000000000F058F90544761C74
:103E2000307800287FF4ECAD19B02846BDE8F08F5B
:103E3000620700D4062709F1070222F0070CFCE80C
:103E40000223E14603F000485FEA080C02D00FF2BB
:103E5000702C0DE05FEA045C02D50FF2682C07E0DD
:103E60005FEAC47C02D00FF2602C01E0AFF2700C6C
:103E70004FF0FF3823F00043CDF850C065280CD038
:103E800006DC452809D046281DD047283DD13DE015
:103E9000662818D067287ED138E00021112F01DB79
:103EA000112000E0781CCDE9000106A90EA8FFF75B
:103EB000DDFCDDE90F010E9A03910021009207F16C
:103EC000010A04914DE04FF000400097CDE9011048
:103ED00006A90EA8FFF7CAFCDDE90F0203920E9BAC
:103EE00011990022DDF80CA00093049211B9791CFD
:103EF00000EB010AB7EB0A0004D4C0F1FF3007F170
:103F0000010A0490AAEB0700019044E0012F00DAB7
:103F100001270021112F01DD112000E03846CDE9F5
:103F2000000106A90EA8FFF7A1FCDDE90F010E9A1A
:103F30000391002104910092BA4621070CD4039901
:103F4000514500DA8A46BAF1010F05DD009AAAF15F
:103F50000101515C302908D0B84202DA10F1040F97
:103F600006DA0121CDE9011015E0AAF10101E9E726
:103F7000002805DC049901440491AAEB000102E049
:103F8000411C514500DD8A460499401A401C0190AD
:103F90004FF000400290200704D40198504501DB07
:103FA000CDF8048000208DF84F0002980DF14F07E6
:103FB000B0F1004F25D02B200E9002984FF0020850
:103FC00000280CDA404202902D200E9007E00A21D2
:103FD0000298FFF776F93031029007F8011DB8F129
:103FE0000001A8F10108F2DC02980028EFD1791E47
:103FF0000E980870307800F0200040F0450007F877
:10400000020D12A8C01B00F107081498007800B137
:10401000012000EB0A01019801EBE0710598414491
:10402000401A401E0590E00306D45B462146179ACD
:10403000059800F05DF805441498007818B15A46C8
:10404000179990476D1CE00324D55B462146179ACB
:10405000059800F04DF805441CE00498002807DBA3
:10406000DDE90301884203DD0098405C179901E017
:10407000179930205A469047049805F10105401CD5
:1040800004900198401E019004D12E205A461799A1
:1040900090476D1CBAF10001AAF1010ADDDC05E0D0
:1040A00017F8010B5A46179990476D1CB8F100019B
:1040B000A8F10108F4DC5B462146179A0598ABE6A7
:1040C0002D0000002B000000200000002DE9F04131
:1040D000044600251E461746880404D405E03946E8
:1040E0002020B0476D1C641EF9D52846BDE8F0813C
:1040F0002DE9F041044600251E469046C80301D52F
:10410000302700E02027880404D505E041463846E2
:10411000B0476D1C641EF9D52846BDE8F0812DE935
:10412000F04106460F46FFF75FFA041E0D4618BF22
:104130000120284320F00040C0F17F6000F1E04002
:10414000C00F0ED0301C18BF0120384320F00040B3
:10415000C0F17F6000F1E040C00F04BF0120FFF715
:104160007FFB20462946BDE8F081004040404040AA
:10417000404040404141414141404040404040403A
:104180004040404040404040404040050202020262
:104190000202020202020202020202202020202069
:1041A0002020202020020202020202029090909021
:1041B00090901010101010101010101010101010FF
:1041C0001010101010100202020202028888888863
:1041D000888808080808080808080808080808085F
:1041E0000808080808080202020240006B410008A3
:1041F0000A0DC7FDB6AFC6F7BDFBD6B9CAE4B3F624
:10420000A3A8CDD1BBFAD7B4CCACA3A9B4CBCAB1C7
:10421000B5E7BBFACEAACEDEB1A3B3D6C1A6BED84F
:10422000D7B4CCACA3ACBFC9D2D4CAD6B6AFD0FD3C
:10423000D7AAB5E7BBFA00000A0DC7FDB6AFC6F7AF
:10424000BBD6B8B4D4CBD0D0A3ACB4CBCAB1B5E74D
:10425000BBFACEAAB1A3B3D6C1A6BED8D7B4CCAC54
:10426000A3ACB4CBCAB1B4AEBFDAD6B8C1EEBFC945
:10427000D2D4D5FDB3A3BFD8D6C6B5E7BBFA0000EC
:104280000A0DBFAAB7A2B0E5B0B4BCFCA3AC4B45C5
:104290005931A3BAC7FDB6AFC6F7BDFBD6B9CAE45C
:1042A000B3F628CDD1BBFAD7B4CCAC2920204B45EE
:1042B0005932A3BAC7FDB6AFC6F7BBD6B8B4D5FD61
:1042C000B3A3B9A4D7F70A0D200000000A0D615B63
:1042D000646174615D20202020202DC9E8D6C3B21E
:1042E000BDBDF8B5E7BBFAB5C4BCD3CBD9B6C8A33E
:1042F000A8B7B6CEA7A3BA3731A1AA33323030302F
:10430000A3A9B5A5CEBBCEAAA3BA302E3031726117
:10431000642F735E320000000A0D645B6461746197
:104320005D20202020202DC9E8D6C3B2BDBDF8B540
:10433000E7BBFAB5C4BCF5CBD9B6C8A3A8B7B6CE0F
:10434000A7A3BA3731A1AA3332303030A3A9B5A51B
:10435000CEBBCEAAA3BA302E30317261642F735E09
:10436000320000000A0D735B646174615D202020DF
:1043700020202DC9E8D6C3B2BDBDF8B5E7BBFAB55C
:10438000C4D7EEB4F3CBD9B6C8A3A8B7B6CEA7A30B
:10439000BA3132A1AA33303030A3A9B5A5CEBBCEF5
:1043A000AAA3BA302E30317261642F73000000006E
:1043B0000A0D6D5B646174615D20202020202DD288
:1043C000D4C9E8B6A8B5C4B2BDCAFDD2C6B6AFB2AC
:1043D000BDBDF8B5E7BBFAA3A8B7B6CEA7A3BA2D63
:1043E00032313437343833363437A1AA32313437A6
:1043F000343833363437A3ACC6E4D6D0D5FDCAFD45
:10440000CEAACBB3CAB1D5EBA3ACB8BACAFDCEAA7B
:10441000C4E6CAB1D5EBA3A9000000000A0DA1AA09
:10442000A1AAA1AAA1AAA1AAA1AAA1AAA1AAA1AA34
:10443000A1AAA1AAA1AAA1AAA1AAB2BDBDF8B5E745
:10444000BBFAC7FDB6AFD1DDCABEB3CCD0F2A1AACC
:10445000A1AAA1AAA1AAA1AAA1AAA1AAA1AAA1AA04
:10446000A1AAA1AAA1AAA1AAA1AA00008C440008FD
:10447000000000206000000040380008EC44000804
:1044800060000020180500005038000800A24A040F
:1044900000000000000000000102030406070809F4
:1044A00000000000010203040102030406070809DA
:1044B00002040608000000000400000000000000E4
:1044C00000000000000000000000000001000000EB
:1044D000409C0000007D0000007D0000B80B000043
:0C44E000000000000000000000000000D0
:0400000508000131BD
:00000001FF
