:020000040800F2
:100000007805002045010008811E0008831E0008B5
:10001000871E00088B1E00088F1E000800000000CD
:10002000000000000000000000000000931E000817
:10003000951E000800000000971E0008991E000889
:100040005F0100085F0100085F0100085F01000810
:100050005F0100085F0100089B1E00085F010008A7
:100060005F0100085F0100085F0100085F010008F0
:100070005F0100085F0100085F0100085F010008E0
:100080005F0100085F0100085F0100085F010008D0
:100090005F0100085F0100085F0100085F010008C0
:1000A0005F0100085F0100085F0100085F010008B0
:1000B000C52400085F0100085F0100085F01000817
:1000C0005F0100085F0100085F0100085F01000890
:1000D0005F010008FB1E00085F0100085F010008C7
:1000E000C91E00085F0100085F0100085F010008E9
:1000F0005F0100085F0100085F0100085F01000860
:100100005F0100085F0100085F0100085F0100084F
:100110005F0100085F0100085F0100085F0100083F
:100120005F0100085F0100085F0100085F0100082F
:10013000DFF80CD003F000FB00480047651E000804
:10014000780500200648804706480047FEE7FEE79E
:10015000FEE7FEE7FEE7FEE7FEE7FEE7FEE7FEE777
:1001600047020008310100080CB500200190009002
:100170006C48006840F480306A49086000BF6948F4
:10018000006800F4003000900198401C0190009835
:1001900018B90198B0F5A06FF1D16248006800F479
:1001A000003010B10120009001E000200090009884
:1001B000012843D15C48006840F010005A490860AB
:1001C0000846006820F0030008600846006840F018
:1001D0000200086053484068524948600846406839
:1001E00048600846406840F48060486008464068BF
:1001F00020F47C1048600846406840F4E8104860ED
:100200000846006840F08070086000BF45480068FC
:1002100000F000700028F9D04248406820F0030048
:10022000404948600846406840F00200486000BF0E
:100230003C48406800F00C000828F9D10CBD10B50E
:10024000FFF792FF10BD10B53648006840F001007E
:1002500034490860084640683449084031494860DC
:1002600008460068324908402E4908600846006880
:1002700020F4802008600846406820F4FE004860B2
:100280004FF41F008860FFF7DAFF4FF00060294944
:10029000086010BD10B5002100200022214B5B68D2
:1002A00003F00C0121B1042906D0082928D107E068
:1002B000214B224C236027E01F4B204C236023E07E
:1002C000184B5B6803F47010164B5B6803F48032C4
:1002D000022303EB904022B9194B4343174C236090
:1002E0000DE0104B5B6803F4003323B1144B434320
:1002F000124C236003E0104B4343104C236003E097
:100300000D4B0E4C236000BF00BF064B5B68C3F370
:1003100003130C4CE15C094B1B68CB40074C23607A
:1003200010BD000000100240002002400000FFF855
:10033000FFFFF6FE08ED00E000127A00000000204A
:1003400000093D000400002031490143314A116099
:10035000704770B5002100230F22C47804B32D4CE0
:10036000246804F4E064C4F5E064210AC1F10403E4
:10037000CA40447804FA03F1847814402143090107
:10038000254C0678A155047804F01F050124AC40E3
:1003900005786D11AD0005F1E025C5F8004109E0D3
:1003A000047804F01F050124AC401C4D067876113A
:1003B00045F8264070BD1A4A0A400243154B1B1FE0
:1003C0001A60704739B1134A121D12680243114B6B
:1003D0001B1D1A6006E00F4A121D126882430D4B66
:1003E0001B1D1A607047042808D14FF0E0210969ED
:1003F00041F004014FF0E022116107E04FF0E021ED
:10040000096921F004014FF0E022116170470000FA
:100410000000FA050CED00E000E400E080E100E0FF
:1004200080FFFF1F002044490860091D0860091D66
:100430000860091D086041483F4914310860704751
:1004400000213D498279002A3AD00A4612680368A1
:100450009A430B461A600A1D126803689A430B1DE3
:100460001A60027911440A6803681A430A60324A22
:100470000832126803689A432F4B08331A601A1D1A
:10048000126803689A432C4B0C331A604279102A85
:100490000ED11A1F126803681A43274B08331A60DB
:1004A0001A1D126803681A43234B0C331A600DE0BF
:1004B0002149427911440A6803681A430A6005E039
:1004C000027911440A6803689A430A607047002160
:1004D000016001710C214171002181717047164941
:1004E000103109680143144A103211607047014607
:1004F0000020114A143212680A400AB1012000E0BB
:10050000002070470C4914310860704701460020F4
:100510000022094B1B6803EA0102074B14331B68D6
:100520000B4013B10AB1012000E0002070470249DE
:10053000143108607047000000040140FFFF0F0005
:1005400010B50446CC48844208D10121042000F0B3
:100550002DFB0021042000F029FB46E0C74884421F
:1005600008D10121082000F021FB0021082000F023
:100570001DFB3AE0C248844208D10121102000F05E
:1005800015FB0021102000F011FB2EE0BD48844235
:1005900008D10121202000F009FB0021202000F0DB
:1005A00005FB22E0B848844208D10121402000F038
:1005B000FDFA0021402000F0F9FA16E0B348844229
:1005C00008D10121802000F0F1FA0021802000F004
:1005D000EDFA0AE0AE48844207D10121801500F00F
:1005E000E5FA0021A01500F0E1FA10BD10B50121D7
:1005F000084600F0DBFA0021012000F0D7FA10BD18
:100600002DE9F041024600250026002000230024A9
:10061000002791F803C00CF00F0591F803C00CF00F
:10062000100CBCF1000F03D091F802C04CEA050594
:1006300091F800C0BCF1000F31D0146800202BE00D
:100640004FF0010C0CFA00F3B1F800C00CEA0306FD
:100650009E4220D183004FF00F0C0CFA03F7BC43ED
:1006600005FA03FC4CEA040491F803C0BCF1280F1E
:1006700006D14FF0010C0CFA00FCC2F814C00AE0DD
:1006800091F803C0BCF1480F05D14FF0010C0CFAF2
:1006900000FCC2F810C0401C0828D1D31460B1F887
:1006A00000C0BCF1FF0F34DD546800202EE000F1E3
:1006B000080C4FF0010808FA0CF3B1F800C00CEA7E
:1006C00003069E4221D183004FF00F0C0CFA03F772
:1006D000BC4305FA03FC4CEA040491F803C0BCF1E6
:1006E000280F05D100F1080C08FA0CF8C2F81480A4
:1006F00091F803C0BCF1480F07D100F1080C4FF08E
:10070000010808FA0CF8C2F81080401C0828CED363
:100710005460BDE8F0814FF6FF71018002218170C5
:100720000421C17070470246002093680B400BB152
:10073000012000E0002070470146886880B27047C1
:1007400002460020D3680B400BB1012000E00020DE
:1007500070470146C86880B27047016170474161C7
:1007600070470AB1016100E041617047C1607047A4
:100770004FF480320A4382618161826182698269B9
:10078000704702460020434B18684FF680731840AC
:1007900040EA021008433F4B186070473E49C86169
:1007A0007047F0B50A46002300240021002500F020
:1007B0000046B6F1004F02D1364EF16901E0354EE8
:1007C0007168C0F3034583B200F44016B6F5401FCC
:1007D00008D121F070612F4E766826F070662D4F9B
:1007E0007E6012E000F48016B6F5801F06D1032665
:1007F00006FA05F4A14341F0706106E0460D3601AA
:1008000003FA06F6B14341F0706122B1460D36019C
:1008100003FA06F6314300F00046B6F1004F02D16C
:100820001C4EF16101E01B4E7160F0BD30B500223D
:100830008B071C0F0F2303FA04F2164B08338C109E
:1008400053F824309343134C08348D1044F825306A
:1008500023468C1053F824308C07240F00FA04F43C
:1008600023430C4C08348D1044F8253030BD0A4920
:10087000DC3108607047000000080140000C0140B6
:10088000001001400014014000180140001C01400C
:10089000002001400000014000002042DF480068C5
:1008A00040F00100DD49086008464068DC49084026
:1008B000DA49486008460068DA490840D7490860C4
:1008C0000846006820F4802008600846406820F44C
:1008D000FE0048604FF41F0088607047CF490968E8
:1008E00021F48031CD4A11601146096821F480213C
:1008F0001160B0F5803F03D0B0F5802F0ED106E037
:10090000C649096841F48031C44A116007E0C3490F
:10091000096841F4A021C14A116000E000BF00BF96
:10092000704710B501460022002300204A11012A19
:1009300002D1BA4C236806E0022A02D1B74C236ADE
:1009400001E0B64C636A01F01F02012494401C4090
:100950000CB1012000E0002010BD38B5002000904F
:100960000024002500BF3120FFF7DBFF054600987B
:10097000401C00900098B0F5A06F01D0002DF2D07F
:100980003120FFF7CEFF08B1012400E0002420460B
:1009900038BD01460020A14A106820F0F80040EA66
:1009A000C10010607047A0490860704702460020EF
:1009B0009A4B586820F47C1042EA01031843974B85
:1009C0005860704798490866704701460020934A6E
:1009D000506820F003000843506070478F4840681B
:1009E00000F00C007047014600208C4A506820F04F
:1009F000F00008435060704701460020874A506865
:100A000020F4E06008435060704701460020834AAC
:100A1000506820F4605040EAC1005060704729B12E
:100A20007E4A527A02437D4B5A7204E07B4A527AE4
:100A300082437A4B5A7270477B49D83108607047BD
:100A400001460020754A506820F440400843506039
:100A500070470021714A20321170704A82F82010CC
:100A6000012802D004280AD104E001216B4A203277
:100A7000117005E00521694A2032117000E000BFC5
:100A800000BF70476949086070476449096A0143BB
:100A9000624A11627047654944390860704730B551
:100AA00000210022002400235C4D6D6805F00C013C
:100AB00021B1042905D0082923D105E05C4D05604A
:100AC00022E05B4D05601FE0544D6D6805F4701227
:100AD000524D6D6805F48034022505EB92421CB935
:100AE000544D554305600BE04C4D6D6805F40035E1
:100AF0001DB1504D5543056002E04D4D5543056015
:100B000002E04B4D056000BF00BF444D6D6805F02D
:100B1000F0010909484D6B5C0568DD4045603F4DBB
:100B20006D6805F4E061090A434D6B5C4568DD4082
:100B300085603A4D6D6805F46051C90A3E4D6B5CA5
:100B40004568DD40C560354D6D6805F44041890B51
:100B50003A4D6B5CC568B5FBF3F5056130BD29B155
:100B60002E4A526902432D4B5A6104E02B4A5269C6
:100B700082432A4B5A61704729B1284A926902433D
:100B8000264B9A6104E0254A92698243234B9A617D
:100B9000704729B1214AD2690243204BDA6104E04F
:100BA0001E4AD26982431D4BDA61704729B11B4A44
:100BB000D2680243194BDA6004E0184AD2688243D3
:100BC000164BDA60704729B1144A12690243134B7D
:100BD0001A6104E0114A12698243104B1A6170478E
:100BE00012494039086070470F49C86470470B4983
:100BF000C87170470948406A40F0807007494862F0
:100C0000704701460020054A92680A400AB1012057
:100C100000E00020704701498872704700100240D0
:100C20000000FFF8FFFFF6FE00004242800442424F
:100C300000127A0000093D0014000020240000206A
:100C400010B50446FE48844208D10121C014FFF7C4
:100C5000ADFF0021E014FFF7A9FFC4E0B4F1804F1D
:100C600008D101210846FFF7AEFF00210120FFF760
:100C7000AAFFB8E0F348844208D101210220FFF71F
:100C8000A2FF00210220FFF79EFFACE0EE48844265
:100C900008D101210420FFF796FF00210420FFF76F
:100CA00092FFA0E0E948844208D101210820FFF723
:100CB0008AFF00210820FFF786FF94E0E448844281
:100CC00008D101211020FFF77EFF00211020FFF73F
:100CD0007AFF88E0DF48844208D101212020FFF715
:100CE00072FF00212020FFF76EFF7CE0DA4884428B
:100CF00008D101214014FFF759FF00216014FFF7CC
:100D000055FF70E0D548844209D10121C804FFF79E
:100D10004DFF00214FF40020FFF748FF63E0D0486B
:100D2000844209D101210805FFF740FF00214FF45B
:100D30008010FFF73BFF56E0CA48844209D10121E9
:100D40004805FFF733FF00214FF40010FFF72EFF97
:100D500049E0C548844208D101214020FFF733FF14
:100D600000214020FFF72FFF3DE0C048844208D11A
:100D700001218020FFF727FF00218020FFF723FFBC
:100D800031E0BB48844208D101218015FFF71BFFE9
:100D90000021A015FFF717FF25E0B648844209D1CE
:100DA00001210804FFF702FF00214FF48030FFF714
:100DB000FDFE18E0B048844209D101214804FFF744
:100DC000F5FE00214FF40030FFF7F0FE0BE0AB48DA
:100DD000844208D101218804FFF7E8FE00214FF486
:100DE0008020FFF7E3FE10BD00220288944B98425A
:100DF0000ED0994B98420BD0B0F1804F08D0914B58
:100E0000984205D0904B984202D0904B984204D122
:100E10004FF68F731A404B881A438D4B984207D078
:100E20008C4B984204D04FF6FF431A40CB881A43AC
:100E300002808B8883850B880385814B98420BD079
:100E4000854B984208D08B4B984205D08A4B9842EC
:100E500002D08A4B984201D10B7A03860123838208
:100E6000704770B5002400220023058C4FF6FE76F3
:100E700035400584028C8388048B4FF68F752C4097
:100E8000B51E2C400D882C43751E2A400D892A431F
:100E90004D882A436A4DA8420BD06F4DA84208D016
:100EA000744DA84205D0744DA84202D0734DA8429B
:100EB00013D14FF6F7752A404D892A434FF6FB753B
:100EC0002A408D882A434FF6FF652B404FF6FF5589
:100ED0002B408D892B43CD892B4383800483CD8880
:100EE0008586028470BD70B5002400220023058C25
:100EF0004FF6EF7635400584028C8388048B48F6E4
:100F0000FF752C404FF6FF452C400D884FF6FF76BD
:100F100006EA05252C434FF6DF752A400D8906EABF
:100F200005152A434D8806EA05152A43444DA84273
:100F300002D0494DA8421DD14FF67F752A404D89F8
:100F40004FF6FF7606EA05152A434FF6BF752A408D
:100F50008D8806EA05152A434FF6FF352B404FF2E0
:100F6000FF752B408D8906EA85052B43CD8906EA5E
:100F700085052B4383800483CD880587028470BD5B
:100F800070B5002400220023058C4FF6FF66354023
:100F90000584028C8388848B4FF68F752C404FF626
:100FA000FC752C400D882C434FF6FF552A400D89C7
:100FB0004FF6FF7606EA05252A434D8806EA052501
:100FC0002A431F4DA84202D0234DA8421DD14FF203
:100FD000FF752A404D894FF6FF7606EA05252A431C
:100FE0004FF6FF352A408D8806EA05252A434EF63E
:100FF000FF752B404DF6FF752B408D8906EA0515D0
:101000002B43CD8906EA05152B4383808483CD8845
:101010008587028470BD70B5002200230024058CF2
:101020004EF6FF7635400584038C8488828B48F623
:10103000FF752A404FF6FF452A400D8820E000004A
:10104000002C01400004004000080040000C00405B
:10105000001000400014004000340140004C0140EA
:10106000005001400054014000180040001C0040A6
:101070000020004000400140004401400048014081
:101080004FF6FF7606EA05252A434DF6FF752B40FD
:101090000D8906EA05352B434D8806EA05352B43B5
:1010A000FA4DA84202D0FA4DA84208D14BF6FF757E
:1010B0002C408D894FF6FF7606EA85152C438480F7
:1010C0008283CD88A0F84050038470BD828B4FF29C
:1010D000FF331A408283828B4FF6FF7303EA0123AA
:1010E0001A4382837047F0B50C4615460022002152
:1010F0000026078C4EF6FF7C07EA0C070784828BDC
:10110000018C4FF6FF7707EA043640F6FF473A4076
:101110004FF6FF7707EA05273A434FF6FF7707EACE
:1011200003373A43D94FB8420ED0D94FB8420BD00B
:10113000B0F1804F08D0D74FB84205D0D64FB84253
:1011400002D0D64FB84206D14DF6FF77394046F46B
:101150008057394305E047F6FF57394044F480573C
:10116000394382830184F0BD828B4FF6F3731A40BA
:101170008283828B0A4382837047F0B50C46154602
:10118000002200210026078C4FF6FF6C07EA0C07AF
:101190000784828B018C4FF6FF7707EA04264FF60F
:1011A0000C773A404FF6FF7707EA03172F433A438D
:1011B000B64FB8420ED0B64FB8420BD0B0F1804F08
:1011C00008D0B44FB84205D0B34FB84202D0B34FA5
:1011D000B84206D14FF6FF57394046F4807739437D
:1011E00005E04FF2FF57394044F48077394382835A
:1011F0000184F0BD028B4FF2FF331A400283028B51
:101200004FF6FF7303EA01231A4302837047F0B5D8
:101210000C461546002200210026078C4FF6EF7C75
:1012200007EA0C070784028B018C4FF6FF7707EA69
:10123000041640F6FF473A404FF6FF7707EA0337B8
:101240003A434FF6FF7707EA05273A438F4FB842F4
:101250000ED08F4FB8420BD0B0F1804F08D08D4FD9
:10126000B84205D08C4FB84202D08C4FB84206D15C
:101270004FF6DF77394046F01007394305E04FF667
:101280005F77394044F01007394302830184F0BD91
:10129000028B4FF6F3731A400283028B0A430283D8
:1012A0007047F0B50C46154600220021068C4FF61B
:1012B000FE773E400684028B018C4FF60C7632405E
:1012C0007E1C06EA03162E433243704EB0420ED007
:1012D0006F4EB0420BD0B0F1804F08D06D4EB0428F
:1012E00005D06D4EB04202D06C4EB04206D14FF6E2
:1012F000FD76314044F00106314305E04FF6F576C6
:10130000314044F00106314302830184F0BD70B5E1
:1013100005460C465D4885420ED05D4885420BD09F
:10132000B5F1804F08D05B48854205D05A488542C8
:1013300002D05A48854200D100E000BF208850B951
:101340002389A28861882846FFF7ABFFE1882846F9
:10135000FFF79EFF25E0208804280AD12389A28870
:1013600061882846FFF753FFE1882846FFF742FFD0
:1013700017E0208808280AD12389A2886188284696
:10138000FFF7FBFEE1882846FFF7EEFE09E0238920
:10139000A28861882846FFF7A6FEE1882846FFF765
:1013A00095FE70BD2DE9F04105460C46002601274B
:1013B000608808B9022600E00026A088012801D133
:1013C000022700E001272088A0B92389A28861882C
:1013D0002846FFF766FFE1882846FFF759FF238973
:1013E0003A4631462846FFF712FFE1882846FFF7C4
:1013F00001FF13E02389A28861882846FFF707FFD1
:10140000E1882846FFF7F6FE23893A46314628460A
:10141000FFF747FFE1882846FFF73AFFBDE8F08174
:101420000A884B881A438B881A43CB881A430B8946
:101430001A434B891A438B891A43A0F844207047FA
:101440004FF6FF71818000210180C18041800172CF
:1014500070470021018041808180C18001814181EC
:101460008181C181704700210180418001218180FB
:101470000021C1800181704700210180418081806D
:10148000C18001814181818170470000002C0140B1
:10149000003401400004004000080040000C0040FF
:1014A00021B1028842F00102028004E002884FF676
:1014B000FE731A400280704731B1B0F8442042F404
:1014C0000042A0F8442005E0B0F84420C2F30E0228
:1014D000A0F8442070471AB183890B43838102E04E
:1014E00083898B43838170478182704741EA02037D
:1014F000A0F8483070471AB183890B43838102E01A
:1015000083898B438381704701894FF6F8721140BC
:10151000018170470A46002101894FF68F731940F7
:1015200011430181704730B504460D4629462046D7
:10153000FFF7F0FF208940F00700208130BD2DE942
:10154000F04104460D4616461F46602D06D13B4627
:10155000012231462046FFF75AFE05E03B460122B4
:1015600031462046FFF79DFE29462046FFF7D2FF71
:10157000208940F007002081BDE8F08130B50C469D
:1015800000210189C9B24FF6FF7505EA032515430D
:1015900025432943018130BD2DE9F04105460E4622
:1015A00017469846002443463A4631462846FFF7F8
:1015B000E5FF2C894FF6F870044044F007044FF61D
:1015C0008F70044044F070042C81BDE8F081F0B5C8
:1015D00004460D4616461F463B46324629462046DF
:1015E000FFF7CCFF208940F480402081F0BD0185C9
:1015F000828270470A46002101884FF68F73194096
:10160000114301807047F0B50C4615461E46002177
:10161000002200230189028B038C4FF6F8773940B2
:1016200021434FF6FC473A4040F201173A434FF648
:10163000DD773B404FF6FF7707EA06172F433B4322
:10164000018102830384F0BD0A460021018B4FF61D
:101650008F7319401143018370470A460021018BA3
:1016600048F6FF7319404FF6FF7303EA022319434C
:10167000018370470A460021818B4FF68F73194012
:101680001143818370470A460021818B48F6FF731E
:1016900019404FF6FF7303EA022319438183704711
:1016A00021B1028842F08002028004E002884FF6F5
:1016B0007F731A400280704721B1828842F0040291
:1016C000828004E082884FF6FB731A408280704764
:1016D00021B1828842F00802828004E082884FF6BD
:1016E000F7731A408280704721B1828842F001026C
:1016F000828004E082884FF6FE731A408280704731
:101700000A460021018B4FF6F773194011430183FC
:1017100070470A460021018B4FF2FF7319404FF6C4
:10172000FF7303EA02231943018370470A4600212D
:10173000818B4FF6F77319401143818370470A4636
:101740000021818B4FF2FF7319404FF6FF7303EABC
:1017500002231943818370470A460021018B4FF60B
:10176000FB7319401143018370470A460021018B26
:101770004FF6FF3319404FF6FF7303EA0223194374
:10178000018370470A460021818B4FF6FB73194095
:101790001143818370470A460021818B4FF6FF3346
:1017A00019404FF6FF7303EA022319438183704700
:1017B0000A460021018B4FF67F73194011430183C4
:1017C00070470A460021018BC1F30E014FF6FF73EB
:1017D00003EA02231943018370470A460021818BE3
:1017E0004FF67F7319401143818370470A460021E9
:1017F000818BC1F30E014FF6FF7303EA02231943F5
:10180000818370470A460021018C4FF6FD73194011
:101810001143018470470A460021018C4FF6F7738B
:1018200019401143018470470A460021018C4FF68C
:10183000DF7319404FF6FF7303EA02131943018463
:1018400070470A460021018C4FF67F7319404FF60E
:10185000FF7303EA02131943018470470A4600210B
:10186000018C4FF6FF5319404FF6FF7303EA022332
:101870001943018470470A460021018C4FF2FF731F
:1018800019404FF6FF7303EA02231943018470479E
:101890000A460021018C4DF6FF7319404FF6FF7385
:1018A00003EA023319430184704730B50023012451
:1018B0008C40A3B2048C9C430484048C02FA01F58E
:1018C000ADB22C43048430BD30B5002304248C40D9
:1018D000A3B2048C9C430484048C02FA01F5ADB2DB
:1018E0002C43048430BD70B5034600200024184604
:1018F000183001258D40ACB21D8CA5431D8409B163
:10190000082909D100EB6100056825F07005056024
:101910000568154305600EE00D1FC5F34E0528440C
:10192000056825F4E045056005684FF6FF7606EA90
:1019300002263543056070BD21B1028842F00202E3
:10194000028004E002884FF6FD731A40028070475F
:1019500021B1028842F00402028004E002884FF6BE
:10196000FB731A400280704721B1828842F08002E6
:10197000828004E082884FF67F731A40828070472D
:1019800002884FF6F7731A40028002880A430280E9
:10199000704782884FF68F731A40828082880A438C
:1019A0008280704702894FF6F8731A4002810289DB
:1019B0000A430281704702894FF67F731A40028101
:1019C00002890A430281704781847047818570478C
:1019D000818670470187704781877047A0F8401063
:1019E000704702884FF6FF431A40028002880A437C
:1019F000028070470146888E70470146088F704705
:101A00000146888F70470146B1F840007047014693
:101A1000888C70470146088D704702460020138A63
:101A20000B400BB1012000E000207047CA43028246
:101A3000704730B50246002000230024158A05EACD
:101A40000103958905EA010413B10CB1012000E0FE
:101A5000002030BDCA4302827047000010B5044622
:101A6000FB48844209D101218803FFF79FF8002138
:101A70004FF48040FFF79AF832E0F648844209D1EB
:101A800001214804FFF79FF800214FF40030FFF7D1
:101A90009AF825E0F048844209D101218804FFF733
:101AA00092F800214FF48020FFF78DF818E0EB4802
:101AB000844209D10121C804FFF785F800214FF4C1
:101AC0000020FFF780F80BE0E548844208D10121AF
:101AD0000805FFF778F800214FF48010FFF773F83E
:101AE00010BD2DE9F04786B005460E460024A246FB
:101AF00000BFA1460027B08900B100BF2F462C8A45
:101B00004CF6FF700440F08804432C82AC894EF6FA
:101B1000F3100440B08831890843718908430443B5
:101B2000AC81AC8A4FF6FF400440B0890443AC82DC
:101B300001A8FEF7B4FFC648874202D1DDF810A025
:101B400001E0DDF80CA0A88900F4004040B10AEBE8
:101B5000CA0000EB0A1031684900B0FBF1F807E059
:101B60000AEBCA0000EB0A1031688900B0FBF1F8FB
:101B70006420B8FBF0F004012009642101FB108906
:101B8000A88900F4004040B1322000EBC900B0FB4E
:101B9000F1F000F00700044308E0322000EB0910E8
:101BA0006421B0FBF1F000F00F0004432C8106B07B
:101BB000BDE8F0874FF41651016000218180C1809B
:101BC00001810C21418100218181704710B50246BD
:101BD0000020108A4FF2FF0318400B884C882343E3
:101BE0008C882343CC8823431843108210BD0021E6
:101BF000018041808180C180704721B1828942F497
:101C00000052828104E082894DF6FF731A4082817E
:101C10007047F0B50346002400260025002040F65A
:101C20006A17B94200D100BF1846C1F3421401F04F
:101C30001F06012707FA06F5012C01D10C3004E03C
:101C4000022C01D1103000E014301AB107682F4384
:101C5000076002E00768AF430760F0BD1AB1838AEE
:101C60000B43838202E0838A8B4383827047028A1C
:101C70004FF6F0731A400282028A0A4302827047CA
:101C800082894FF2FF731A40828182890A438281DE
:101C9000704721B1828942F00202828104E0828988
:101CA0004FF6FD731A4082817047028A4FF6DF7348
:101CB0001A400282028A0A430282704721B1028AD4
:101CC00042F48042028204E0028A4BF6FF731A401B
:101CD00002827047C1F308028280704701468888FB
:101CE000C0F308007047818941F00101818170478C
:101CF000028BD2B20283028B42EA01220283704736
:101D0000028B02F47F420283028B0A4302837047F4
:101D100021B1828A42F02002828204E0828A4FF658
:101D2000DF731A408282704721B1828A42F010022A
:101D3000828204E0828A4FF6EF731A4082827047F3
:101D400021B1828A42F00802828204E0828A4FF640
:101D5000F7731A408282704721B1828942F40042AF
:101D6000828103E08289C2F30E028281704721B131
:101D7000828A42F40062828204E0828A4FF2FF7318
:101D80001A4082827047828A4FF6FB731A40828221
:101D9000828A0A438282704721B1828A42F002021B
:101DA000828204E0828A4FF6FD731A408282704775
:101DB00002460020B1F5007F00D100BF13880B4020
:101DC0000BB1012000E00020704701F40072B2F571
:101DD000007F00D100BFCA430280704770B5024641
:101DE000002400230025002040F66A16B14200D1ED
:101DF00000BFC1F3421501F01F03012606FA03F3E9
:101E0000012D02D19689334006E0022D02D1168AB7
:101E1000334001E0968A33400C12012606FA04F49E
:101E20001688344013B10CB1012000E0002070BDD1
:101E300010B50022002340F66A14A14200D100BF71
:101E40000A1201249440A3B2DC43048010BD0000B8
:101E5000003801400044004000480040004C004071
:101E60000050004000F0B4F800F065FC00F0BDFC4C
:101E700000F0E6F900F084FD01E000F05AFEFCE716
:101E8000704700BFFEE700BFFEE700BFFEE700BFF0
:101E9000FEE7704770477047704710B50120FEF7A6
:101EA00035FB80B145480078C0F3800040B144481C
:101EB000006880F0200042490860012000F0CAF963
:101EC0000120FEF734FB10BD10B54FF40050FEF7B3
:101ED0001DFB88B139480078C0F3800040B938480C
:101EE000006880F0010036490860002000F0B2F977
:101EF0004FF40050FEF71BFB10BD10B540F225510A
:101F00003048FFF76BFF002857D02E48FFF7E6FE5A
:101F1000C4B22A48007800F0010000284DD12748BB
:101F20000078C0F38000002847D0082C1AD126483A
:101F30000078002841D00821224800F09AFC202196
:101F4000204800F096FC08211E4800F092FC1E4834
:101F50000078401E1C49087000201C491A4A12785B
:101F600088542AE018480078FF280FDA17481649E5
:101F7000097844540021024613480078401C11544B
:101F800011480078401C1049087008E00E4800789D
:101F9000401E0E490C5408210A4800F06AFC0D2C22
:101FA00007D10648007820F00200801C0349087021
:101FB00003E02146034800F05CFC10BD2C0000202B
:101FC0000C0C0140003801403C000020780000204B
:101FD00008B501210820FEF7CFFD2020ADF8000054
:101FE00010208DF8030003208DF802006946114887
:101FF000FEF706FB0120ADF8000069460D48FEF72C
:10200000FFFA0220ADF8000069460A48FEF7F8FA28
:1020100020210848FEF7A1FB01210648FEF79DFBA1
:1020200002210448FEF799FB08BD2022014B14331E
:102030001A607047000C014008B54FF4E060FEF7ED
:1020400083F91C208DF8000001208DF801008DF827
:1020500002008DF803006846FEF77BF908BD08B55D
:1020600001210420FEF788FD0820ADF800001820AB
:102070008DF8030003208DF802006946FE48FEF744
:10208000BFFA01210820FEF777FD4FF48040ADF83C
:10209000000010208DF8030003208DF8020069462F
:1020A000F648FEF7ADFA4FF48041F448FEF757FBCF
:1020B00001211020FEF760FD1020ADF800008DF822
:1020C000030003208DF802006946ED48FEF798FAF8
:1020D0001021EB48FEF743FB01210420FEF74CFDE5
:1020E0004020ADF800008020ADF8000018208DF8E9
:1020F000030003208DF802006946DF48FEF780FAEE
:1021000008BD00B587B001210220FEF742FD04A8FA
:10211000FFF796F940F6E340ADF814004720ADF81C
:1021200010000020ADF81600ADF8120004A9D54843
:10213000FEF75AFE7020ADF800000120ADF8020055
:102140000020ADF8040040F27160ADF806000220F6
:10215000ADF808000020ADF80C006946C948FEF74C
:1021600080FE6946C748FEF7BEFE0821C548FFF756
:10217000C7FA0821C348FFF7CCFA0121C148FFF78D
:102180008FFA0121BF48FFF7E3FB0121BD48FFF7AC
:1021900061FC01221146BB48FFF79DF90021B948B7
:1021A000FFF77EF907B000BD00B587B001210846F2
:1021B000FEF7EFFC04A8FFF743F90920ADF814007F
:1021C0004720ADF810000020ADF81600ADF8120061
:1021D00004A94FF08040FEF707FE7020ADF8000024
:1021E0000120ADF802000020ADF804000420ADF895
:1021F00006000220ADF808000020ADF80C0069468A
:102200004FF08040FEF707FF0821C806FFF797FA56
:1022100001218807FFF744FA01218807FFF798FB9F
:1022200001218807FFF716FC012211469007FFF7EE
:1022300052F900214FF08040FFF732F907B000BD9E
:1022400010B5FFF70CFFFFF7F7FEFFF7ADFFFFF745
:1022500058FF10BD10B504466CB110218848FEF738
:102260007CFA8948007820F0040087490870874884
:1022700001F0F8FA0DE010218148FEF770FA82486B
:10228000007820F00400001D7F490870804801F0AC
:10229000E9FA10BD10B5044640F6E4417948FFF76D
:1022A00095FB4CB94FF420717648FFF791FB4FF442
:1022B00020717448FFF78EFB022C09D14FF4FA61AC
:1022C0007048FFF785FB4FF4FA616E48FFF782FB19
:1022D00001216C48FFF7E4F810BD2DE9F04F89B0FB
:1022E00004460D4616469B46002C08DA69480078DD
:1022F00020F00800083067490870644205E065482E
:10230000007820F008006349087062480078C0F344
:10231000C00028B94FF480415848FEF720FA04E085
:102320004FF480415548FEF718FA012C1FD1A01E2A
:10233000584948610846007820F00700801C087062
:102340004FF47A7048605048007820F00100401C3B
:102350004D49087014210807FFF738FB0A21480788
:10236000FFF738FB01218807FFF79AF882E0002C7D
:10237000FCD047F6B720B0FBFBF046490861464861
:10238000B0FBF5F0019000F09CFF074601F0EDFE78
:102390000022424BCDE9020100F0A1FE0022404B99
:1023A000CDE9040100F00DFFCDE9060100F096FF34
:1023B0003849486005EB450040006421B0FBF1F16D
:1023C0000BFB0BF0B0FBF1F9B9F1000F01D14FF0AD
:1023D000010904FB06F0A919B0FBF1FABAF1000FEC
:1023E00001D14FF0010ACA4504D8AAEB04002949DB
:1023F000C86006E009FB05F0B0FBF6F04042254955
:10240000C8602448C06818B94FF0FF302149C8603F
:102410002048C06820441F49886008464068096910
:1024200088420AD81B4800691A4948600846007863
:1024300020F00700C01C087006E01648007820F065
:102440000700401C134908700020124948610E48DB
:10245000007820F00100401C0B4908701421080787
:10246000FFF7B4FA0A214807FFF7B4FA01218807F9
:10247000FFF716F809B015E000080140000C014014
:1024800000100140000400402C0000203C420008E5
:102490008442000860000020ACDF5F000068BA40A2
:1024A00000005940BDE8F08F012805D18E49096828
:1024B000491E8D4A116004E08B490968491C8A4A0B
:1024C0001160704710B501218807FFF7B2FA0028A4
:1024D0007ED001218807FFF7BDFA84484068C0F329
:1024E0004F00834908808148808809068885814893
:1024F0000078C0F3800028B97C48007820F00700FD
:102500007A4908707948007800F0070030B1012856
:102510001DD0022879D0032818D177E00020764911
:102520000860764908604FF08040008C20F48050AD
:102530004FF08041088400214FF08040FEF7B0FF4B
:102540006C48007820F001006A490870C7E04FF03D
:102550008040008C40F480504FF0804108846349F3
:102560000978C1F3C000FFF79FFF63480068401C73
:10257000614908605D484069401C5C494861084603
:1025800040685E490968022202FB00115748406911
:102590008000401C91FBF0F0544949680C1A5348E4
:1025A00040685649096802FB0011504840698000A4
:1025B000401C91FBF0F200FB1210504908604B48A0
:1025C00080684D49096888420CD84848C06800E0D6
:1025D00088E0464948610846007820F00700801CE2
:1025E000087011E041480069A0420DD344480460DE
:1025F0003E4804690020414908603C48007820F0CA
:102600000700C01C3949087069E025E04FF08040A0
:10261000008C40F480504FF08041088433490978A1
:10262000C1F3C000FFF740FF33480068401C324947
:1026300008602E4804698068096888420BD82B48D6
:10264000C0682A4948612E4804680846007820F08E
:102650000700801C087042E04FF08040008C40F47E
:1026600080504FF08041088420490978C1F3C000B0
:10267000FFF71AFF20480068401C1F4908601B48EC
:102680004069401C19494861084640681B4909686F
:10269000022202FB0011154840698000401C91FB9A
:1026A000F0F0124949680C1A10484068134909684B
:1026B00002FB00110D4840698000401C91FBF0F2C4
:1026C00000FB12100D49086008484069002805DB2E
:1026D0000648007820F007000449087000BF00BFDA
:1026E0000248446010BD0000280000206000002067
:1026F000400000402C000020340000203800002062
:102700003000002008B54FF4C060FDF71DFE062024
:102710008DF8000001208DF801008DF802008DF881
:1027200003006846FDF715FE28208DF80000684676
:10273000FDF70FFE08BD0EB501210520FEF71CFABE
:10274000FFF7E0FF0120ADF8080004208DF80B0032
:1027500002A91A48FDF754FF00210846FEF766F863
:102760000120009000208DF8040008208DF805005D
:1027700001208DF806006846FDF762FE4FF4005018
:10278000ADF8080004208DF80B0002A90C48FDF7F5
:1027900037FF0D210220FEF749F84FF4005000905A
:1027A00000208DF804000C208DF8050001208DF824
:1027B00006006846FDF744FE0EBD0000000801401B
:1027C0000010014008B54FF4A060FDF7BDFD2520C5
:1027D0008DF8000001208DF801008DF802008DF8C1
:1027E00003006846FDF7B5FD08BD00B585B00121C1
:1027F0000420FEF7C1F901218803FEF7BDF94FF46B
:102800000070ADF8100018208DF8130003208DF82B
:10281000120004A95648FDF7F3FE4FF48060ADF8AE
:10282000100004208DF8130004A95148FDF7E8FEBC
:102830004FF4E13000900020ADF80400ADF8060040
:10284000ADF80800ADF80C000C20ADF80A006946A0
:102850004848FFF746F9FFF7B5FF012240F225513E
:102860004448FFF7D6F901214248FFF7C6F905B001
:1028700000BD70B504460D4629462046FFF72AFAEA
:1028800000BF80212046FFF793FA0028F9D070BDE1
:102890002DE9F04107460D461646002405E0295D66
:1028A0003846FFF7E6FF601CC4B2B442F7DB00BF56
:1028B00040213846FFF77CFA0028F9D0BDE8F081C6
:1028C00070B506460C46002500BF615D3046FFF737
:1028D000D0FF6D1C605D0028F7D100BF402130465D
:1028E000FFF766FA0028F9D070BD2DE9F0410546E2
:1028F0000C46260AE7B231462846FFF7EBF900BF3F
:1029000080212846FFF754FA0028F9D03946284696
:10291000FFF7E0F900BF80212846FFF749FA0028B9
:10292000F9D0BDE8F0810020134908701349124A1C
:1029300012788854704770B504460D46E1B20D48D0
:10294000FFF7C8F900BF80210A48FFF731FA0028D5
:10295000F9D0204670BD10B5044600BF20210548BF
:10296000FFF726FA0028F9D00248FFF7B7F910BDA3
:1029700000080140003801403C00002078000020A1
:1029800010B5D04800F06EFFCFA000F06BFFD2A0D2
:1029900000F068FFD64800F065FFD64800F062FFFF
:1029A000D54800F05FFFD54800F05CFFD4A000F0F0
:1029B00059FFDDA000F056FFE9A000F053FFF8A09A
:1029C00000F050FFFE4800F04DFF10BD2DE9F04F24
:1029D00087B004460D4616469946284600F060FC2E
:1029E00007460022F74B00F07AFB82460022F64BA6
:1029F00000F0E7FB02460B46CDE90401F3A000F02E
:102A000031FF304600F04CFC82460022ED4B00F0D6
:102A100066FB07460022EC4B00F0D3FB02460B4658
:102A2000CDE90401EFA000F01DFF484600F038FC9E
:102A30008246F24AF24B00F052FB07460022E24B7C
:102A400000F0BFFBCDE90401484600F029FC074631
:102A50000022DC4B00F043FB82460022DA4B00F000
:102A6000B0FBCDE90201DDE90401CDE90001E5A0FB
:102A7000DDE9022300F0F6FEEAA0109900F0F2FE74
:102A80002146ECA000F0EEFE07B0BDE8F08F01B5E6
:102A900002E00098401E009000980028F9D108BD7F
:102AA0007FB50024E9A2D2E900109268CDE90202C4
:102AB0000191002538E00B2C00D1002405E0E64808
:102AC0000078C0F3800000B905E0E348007800F02A
:102AD00001000028F3D100BFDF480078C0F3800078
:102AE00000B923E0DD48FFF7D2FF01A9095744F6FA
:102AF000206201FB02F040F6B8334FF4FA4211466F
:102B0000FFF7EBFB01A8005744F62061484340F66D
:102B1000B8334FF4FA4211460090D1480068FFF7ED
:102B200055FF601CC4B26D1CC82DC4DB00BF00245F
:102B30007FBD2DE9FE4F0024A146A2460120029050
:102B40004FF0000BC748007878B10020C5490870E5
:102B5000C54800680090C5480368C5480268C54874
:102B60000168BF480068FFF731FFBB480078C0F339
:102B70004000002877D0C04800786D2875D1BE4845
:102B80004078202815D1BC48801C00F09BFAB6493B
:102B90000860B6480368B6480268B6480168B2489B
:102BA0000068FFF79AFB4FF0010BB4A000F05AFE4B
:102BB00000E2B14840786F28FAD1AF488078762893
:102BC000F6D1AD48C0786528F2D1AB48007920280D
:102BD000EED10625A848401D00F074FAA24908600D
:102BE00000E06D1CA448405D202803D0A248405D51
:102BF0000D28F6D16D1CA049481900F063FA9D49D3
:102C0000086000E06D1C9C48405D202803D09A4875
:102C1000405D0D28F6D16D1C9749481900F052FA15
:102C20009349086000E06D1C9348405D202803D064
:102C30009148405D0D28F6D16D1C8F49481900F070
:102C400041FA8A4908600846036889480268894849
:102C5000016885480068FFF740FB4FF0010B87A033
:102C600000F000FEA6E1E5E1FFE783480078612877
:102C700026D18148407820289AD17F48801C00F0D6
:102C800021FA0446472C93DBB4F5FA4F90DC7948DF
:102C90000460006800F004FB00224A4BCDE900010B
:102CA00000F01DFA07460022474B00F08AFA05465D
:102CB0002A460B4645A000F0D5FD4FF0010B79E107
:102CC000E0E00000684400080A0DCAE4C8EBC3FC59
:102CD000C1EEA3BA000000000A0D3C203F203E20B8
:102CE0002020202020202DB0EFD6FAB2CBB5A500B1
:102CF0001843000864430008B0430008FC43000880
:102D00000A0D705B646174615D20202020202DC954
:102D1000E8D6C3B6E6BBFAB5C4CEBBD6C328B7B6B1
:102D2000CEA73A302D3229000A0D6D6F7665205BF3
:102D300073746570735D205B616363656C5D205BBC
:102D4000646563656C5D205B73706565645D205BC5
:102D50006D6F746F725F706F736974696F6E5D0011
:102D60000A0D2020202020202020202020202DD2CD
:102D7000D4C9E8B6A8B5C4B2BDCAFDA1A2BCD3CB24
:102D8000D9B6C8A3ACBCF5CBD9B6C8A3ACD7EEB402
:102D9000F3CBD9B6C8BFAACABCD4CBB6AF0000002B
:102DA0000A0D3C456E746572BCFC3E2020202DD679
:102DB000D8B8B4D7EEBAF3D2BBB4CEB6AFD7F7001B
:102DC000CC4200080000F03F000059400A0DBCD37F
:102DD000CBD9B6C83A252E32667261642F735E3243
:102DE000000000002020BCF5CBD9B6C83A252E3211
:102DF000667261642F735E32000000009A9999999F
:102E0000991923402020D7EEB4F3CBD9B6C83A2580
:102E10002E32667261642F7328252E326672706DB1
:102E2000290000002020D2C6B6AFB2BDCAFD3A25A7
:102E3000640000000A0DB5E7BBFAB5B1C7B0CEBB60
:102E4000D6C33A2025640D0A000000000202FEFEEF
:102E50000202FCFC041400002C000020FFFF0F0005
:102E600028000020400000204400002050000020E6
:102E70004C00002048000020780000200A0D20208F
:102E8000000000006C480078642828D16A48407827
:102E9000202823D16848801C00F014F98146B9F13C
:102EA000470F1BDBB9F5FA4F18DC6448C0F80090F7
:102EB000006800F0F5F905460022614B00F00FF9BB
:102EC000074600225F4B00F07CF902460B46CDE935
:102ED00000015DA000F0C6FC4FF0010B6AE056480F
:102EE0000078732829D154484078202862D152486C
:102EF000801C00F0E7F88246BAF10C0F5ADB44F66A
:102F00002060824556DC5648C0F800A0006800F0FA
:102F1000C7F900224A4BCDE9000100F0E0F8054670
:102F20000022484B00F04DF907463A460B464DA0AB
:102F300000F098FC4FF0010B3CE03F4800780D2872
:102F40000CD1474803683D4802684C4801684C482A
:102F50000068FFF7C2F94FF0010B2BE0364800780C
:102F60003F2804D1FFF70CFD4FF0010B22E032485F
:102F70000078742804D1FFF793FD4FF0010B19E09E
:102F80002D480078702815D12B484078302806D17C
:102F9000002002900298FFF77DF94FF0010B2648C0
:102FA0004078312806D1022002900298FFF772F98A
:102FB0004FF0010BBBF1010F04D032A000F052FC26
:102FC000FFF7DEFC3648007820F002003449087034
:102FD000FFF7A9FC3248007800F0010050B33048F8
:102FE0000078C0F3800010B12EA000F03BFC05E09B
:102FF0002B480078C0F3800000B905E0284800782D
:1030000000F001000028F3D100BF25480078C0F38C
:10301000800078B128A000F025FC194800680090D5
:103020000F4803680548026814480168244800688E
:10303000FFF7CCFCBDE8FE8F780000204C0000209C
:103040000000F03F000059400A0DBCF5CBD9B6C8CE
:103050003A252E32667261642F735E3200000000E2
:10306000500000200A0DD7EEB4F3CBD9B6C83A25EC
:103070002E32667261642F73000000004800002049
:10308000440000200A0D20CAE4C8EBD3D0CEF3A33D
:10309000ACC7EBD6D8D0C2CAE4C8EB2E2E2E0000A7
:1030A0002C0000200A0DB5E7BBFAD5FDD4DAD4CB4D
:1030B000D0D02E2E2E0000004F4B0A0D0000000035
:1030C0002800002070B5064600F0DCFB04680546C9
:1030D0000A220021304600F071F92C6070BD2DE904
:1030E000FE4F81EA030404F0004421F00041009403
:1030F0004FF0000B23F0004350EA01045ED052EA87
:1031000003045BD0C3F30A54C1F30A552C44A4F260
:10311000F3340194A0FB0254C1F3130141F4801174
:10312000C3F3130343F4801301FB024400FB034E7B
:10313000840A970A44EA815447EA8357A4FB076844
:1031400002958D0A05FB07854FEA932C04FB0C546E
:103150002705029D4FEA065847EA1637B5EB0805E2
:103160006EEB070C870E920E47EA811742EA831234
:10317000A7FB0201B6EB0B0164EB00042B0D43EA45
:103180000C335E1844EB1C50DA465146E7FB020153
:10319000C5F313044FEA0B3343EA14534FEA0432E6
:1031A000019C43EA0603A4F10C040294009CCDE9BF
:1031B00000B400F04AF903B0BDE8F08F00200146EA
:1031C000F9E72DE9F04D81EA030404F0004B21F00A
:1031D000004514464FF0000A23F0004150EA050272
:1031E00020D054EA01021DD0C5F30A570246C5F3A8
:1031F0001303C1F31300C1F30A5640F4801543F4DE
:103200008013A7EB0608101BD64608F2FD3873EBB7
:10321000050002D308F1010801E092185B41B8F102
:10322000000F03DA00200146BDE8F08D00204FF4C6
:103230008011064684460EE0171B73EB050705D385
:10324000121B63EB050306434CEA010C49084FEAE5
:10325000300092185B4150EA0107EDD152EA0300B9
:1032600012D082EA040083EA0501084305D0101B4E
:10327000AB4106D20122002306E000224FF00043BA
:1032800002E06FF0010253101AEB06004CEB0851FC
:1032900010EB0A0041EB0B01BDE8F04D00F0C6B8A1
:1032A0000EB5C10F80EAE0700844CA07002140F261
:1032B00033438DE80E000A460B4600F0C6F803B013
:1032C00000BD0EB540F2334102910021CDE900115D
:1032D0000A460B4600F0B9F803B000BDC1F30A522C
:1032E00010B5C1F3130140F2FF3341F480119A424B
:1032F00001DA002010BD40F233439A42A2F2334279
:1033000003DC524200F04AF810BD904010BD30B5C9
:103310000B46014600202022012409E021FA02F593
:103320009D4205D303FA02F5491B04FA02F528442D
:10333000151EA2F10102F1DC30BD2DE9F05F05465A
:10334000002092469B4688460646814640241BE064
:10335000284641464746224600F020F853465A4642
:10336000C01A914110D311461846224600F0F6F9D2
:103370002D1A67EB01084F4622460120002100F07C
:10338000EDF917EB00094E41201EA4F10104DFDC2A
:10339000484631462A464346BDE8F09F202A04DBD2
:1033A000203A21FA02F00021704721FA02F3D040BE
:1033B000C2F1200291400843194670472DE9F047B9
:1033C00091460F4680460446002614F8015B2DB155
:1033D00000F0E6F90068405DC007F6D12B2D02D061
:1033E0002D2D18D0641E4A463946204600F0DCF9DF
:1033F00027B13968A14201D1C7F8008071054FF0AB
:1034000002040BD54042002803DD00F03BFA0460C3
:10341000A007BDE8F08746F48066E4E70028F8DA04
:1034200000F030FA04606FF00040F2E710B5141EAF
:1034300073F1000408DA401C41F1000192185B416D
:103440001A4301D120F0010010BD2DE9F04D924644
:103450009B4611B1B1FA81F202E0B0FA80F220325B
:10346000904600F07BF904460F4640EA0A0041EA24
:103470000B0153465A46084313D0114653EA010044
:1034800019D0C8F140025046FFF788FF05460E46A6
:1034900050465946424600F061F9084305D00120E4
:1034A00004E020463946BDE8F08D0020054346EA99
:1034B000E0762C4337430A986305E40AA0EB080042
:1034C0000022FD0A44EA47540A3002D50020014692
:1034D000E9E7010510196941DDE90845001969416D
:1034E000BDE8F04DA2E72DE9FE4F804681EA0300DA
:1034F000C00F0C46009021F0004123F00045B8EBCE
:103500000200A94105D24046214690461C460B4682
:10351000024623F00040104347D0270DC7F30A00AE
:10352000C3F30A510290401A019040286BDAC3F3AA
:10353000130040F4801B0098924620B10023D2EB88
:10354000030A63EB0B0B01985946C0F14002504649
:1035500000F004F906460D4650465946019A00F01F
:103560000CF910EB08006141002487EA115284EA4B
:10357000E7731A4340D0009A62B3019A012A4FEAD6
:10358000075215DC001B61EB02014FF0004202EA1A
:103590000752CDE90042001C41F5801132462B460E
:1035A000FFF753FF03B0BDE8F08F40462146F9E72F
:1035B000001B61EB0201001C41F5801300185B4108
:1035C0002018A2F5001747EB030140EAD570B619A1
:1035D0006D4111E06D084FEA360645EAC0754FEAC5
:1035E0000752001B61EB0201001C41F580114908E4
:1035F0004FEA30000019514132462B4603B0BDE876
:10360000F04FFFF713BF0098012240000023D0EBDA
:10361000020263EBE073009821464FEAE074B8EBD6
:10362000000061EB0401E9E783F000435BE781F010
:10363000004158E72DE9F04D00231A461B1A8A4134
:1036400003DB00200146BDE8F08DC1F30A52C1F34F
:10365000130141F480154FF0000BD10702D100187F
:103660006D41521E0027044640F2FF11384601EB1F
:10367000620A3E468046024600204FF48011FFF762
:103680008DFEC2197141BB1846EB0100B4EB030C6F
:1036900075EB000C04D3E41A65EB000517460E46E3
:1036A000241908F101006D4180463428E3DDF91941
:1036B00046EB0600091BA84103D24FF0FF32134628
:1036C00001E0002213461BEB070046EB0A51BDE860
:1036D000F04DFFF7ABBEC1F30A52C1F3130140F244
:1036E000FF3341F480119A4202DA0020014670470C
:1036F00040F233439A42A2F2334202DC5242FFF7D5
:103700004DBE00F02BB8000030B5041E71F100046E
:1037100004DB4FF00044404264EB0101141E73F1DE
:10372000000405DB1C464FF00043524263EB0403E8
:10373000994208BF904230BD064C074D06E0E06854
:1037400040F0010394E8070098471034AC42F6D3E8
:10375000FCF7F2FCB8440008D8440008202A04DB37
:10376000203A00FA02F1002070479140C2F1200394
:1037700020FA03F3194390407047202A06DBCB1749
:10378000203A41FA02F043EAE07306E041FA02F31C
:10379000D040C2F120029140084319467047000012
:1037A00000487047384200082DE9F05F82460078F3
:1037B000002715468B460AF10104B946302801D08E
:1037C0009DB113E014F8010B0127782803D0582885
:1037D00001D045B10AE00DB1102D07D10027102509
:1037E00014F8010B02E0082500E00A250026B04687
:1037F0000EE005FB080005FB06F1012701EB104672
:103800001FFA80F8B6F5803F00D3B94614F8010BD3
:10381000294600F018F80028EBDABBF1000F05D0BC
:103820000FB1641E00E05446CBF80040B9F1000F20
:1038300006D000F027F802210160C81EBDE8F09F05
:1038400048EA0640FAE73A2800D2303820F0200251
:10385000412A01D3A2F13700884201D34FF0FF3053
:10386000704700000FB4054B10B503A9044A029835
:1038700000F0E4F810BC5DF814FB000037290008E4
:1038800058000020004870475C00002002E008C893
:10389000121F08C1002AFAD170477047002001E0CA
:1038A00001C1121F002AFBD17047000001490860C6
:1038B000704700005C0000202DE9FF5F82B000210E
:1038C000DDE90430020DDDF840B0034318D044F6C2
:1038D0001050A2F2FF3242431514119801281FD054
:1038E000A5EB0B00401C5FEA000A4FF000064E4FAC
:1038F000DFF83891B046504615D5CAF1000413E000
:10390000119801244AA3012801D16FEA0B01029802
:10391000119AC0E90031C0E9024206B0BDE8F09F4B
:10392000CBF10000DFE704460021404A491842EB92
:103930000450CDE9001012E0E00707D032463B46C4
:1039400040464946FFF7CBFB8046894632463B4618
:1039500010461946FFF7C3FB06460F466410002CBD
:10396000EAD1DDE90401DDE90023BAF1000F06DA4E
:10397000FFF7B5FB42464B46FFF7B1FB05E0FFF70B
:1039800020FC42464B46FFF71CFC04460E46002234
:10399000284BFFF7B9FE03D84FF0FF30014607E090
:1039A0000022254B20463146FFF79DFDFFF793FE91
:1039B000102409E0002C0ADB0A220023FFF7BDFCDB
:1039C000039B30321A55641E50EA0102F2D1641C86
:1039D000039AC4F111031444119A012A03D001225D
:1039E00008430DD10AE0084304D000204FF0110B2A
:1039F000119072E7A3EB0B056D1E0DE05B4504DD36
:103A00004FF0000205F1010504E003DA4FF0000277
:103A1000A5F10105002AECD002981199C0E9023104
:103A2000C0E9004579E70000000014400000F03FC5
:103A3000300000000000F0430000E03F2DE9FF4FA0
:103A400095B09B468946064600250FE2252877D18A
:103A500000242746F84A0121059400E0044316F8A3
:103A6000013F203B01FA03F01042F7D130782A28B9
:103A700011D06FF02F033078A0F13002092A16D848
:103A8000059A44F0020402EB820203EB4202104466
:103A9000761C0590EFE759F8042B0592002A03DA0B
:103AA000504244F40054059044F00204761C3078EF
:103AB0002E2816D116F8010F44F004042A280DD040
:103AC0006FF02F023078A0F13003092B09D807EBF3
:103AD000870302EB4303C718761CF3E759F8047B0E
:103AE000761C30786C280FD006DC4C2817D068285C
:103AF0000DD06A2814D104E0742810D07A280FD190
:103B00000DE044F400140AE044F4801401E044F4AD
:103B100040147278824202D104F58014761C761C1F
:103B2000307866280BD013DC582877D009DC0028C1
:103B300075D04528F6D04628F4D047281AD19DE103
:103B400018E0632835D0642879D0652812D195E132
:103B5000702873D008DC6728F1D069286FD06E28F0
:103B60000DD06F2806D1B5E073282CD0752875D0FC
:103B7000782874D05A46179990476D1C75E1C4F3A4
:103B80000250022809D003280DD0D9F800100428CB
:103B90000DD00D6009F1040967E1D9F80010EA17AA
:103BA000C1E90052F6E7D9F800100D80F2E70D7078
:103BB000F0E719F8041B8DF8001000208DF80100C3
:103BC000EA46012003E059F804AB4FF0FF306107EB
:103BD0004FF0000102D40DE008F101018846B9421E
:103BE0000FDA8045F8DB1AF808100029F4D108E054
:103BF00008F1010188468142FADB1AF80810002911
:103C0000F6D105985B46A0EB080721463846179A7F
:103C100000F094FA284400EB080507E04DE029E1A4
:103C20000DE01AF8010B5A4617999047B8F10108B0
:103C3000F7D25B4621463846179A13E142E00A2242
:103C40000092C4F302524FF0000A022A08D059F839
:103C500004CB032A4FEAEC710AD00DE029E02AE0F8
:103C600009F1070121F00702F2E802C1914609E0DB
:103C70000FFA8CFC4FEAEC71042A03D14FFA8CFC4A
:103C80004FEAEC71002907DA0A460021DCF1000C4A
:103C900061EB02012D2202E0220504D52B228DF8D2
:103CA0000420012203E0E20701D02022F7E790463A
:103CB00059E00A2102E010220DE010214FF0000A25
:103CC00000910BE010224FF0000A44F00404082792
:103CD000009203E008224FF0000A0092C4F302525F
:103CE000022A05D059F804CB0021032A08D009E0A4
:103CF00009F1070121F00702F2E802C1914605E04F
:103D00001FFA8CFC042A01D10CF0FF0C4FF00008C4
:103D1000220728D5702806D0009B83F0100353EAB1
:103D20000A0305D00EE040228DF80420012208E0AD
:103D30005CEA010206D030228DF804208DF80500DF
:103D400002229046009B83F0080353EA0A030AD13B
:103D50005CEA010201D1620705D530228DF804200A
:103D60004FF001087F1E582804D034A003900EA8FD
:103D700002900DE036A0F9E753466046009AFFF73F
:103D8000DCFA84460398825C0298401E029002701E
:103D90005CEA0100F0D1029806A9081A00F1200A95
:103DA000600702D524F4803400E00127574502DD86
:103DB000A7EB0A0000E0002000EB0A010090059844
:103DC0004144401A0590E00306D45B462146179A09
:103DD000059800F0B3F90544002706E001A85A460B
:103DE000C05D179990476D1C7F1C4745F6DBE003CB
:103DF0000CD55B462146179A059800F09FF90544BB
:103E000004E030205A46179990476D1C0099481ECF
:103E100000900029F5DC08E0029802995A460078E3
:103E2000491C0291179990476D1CBAF10001AAF143
:103E3000010AF1DC65E1000009280100303132336C
:103E400034353637383961626364656600000000D6
:103E500030313233343536373839414243444546C0
:103E60000000000000F058F90544761C3078002866
:103E70007FF4ECAD19B02846BDE8F08F620700D49E
:103E8000062709F1070222F0070CFCE80223E146AD
:103E900003F000485FEA080C02D00FF2702C0DE02E
:103EA0005FEA045C02D50FF2682C07E05FEAC47C8D
:103EB00002D00FF2602C01E0AFF2700C4FF0FF382F
:103EC00023F00043CDF850C065280CD006DC45280F
:103ED00009D046281DD047283DD13DE0662818D09E
:103EE00067287ED138E00021112F01DB112000E08E
:103EF000781CCDE9000106A90EA8FFF7DDFCDDE97D
:103F00000F010E9A03910021009207F1010A04911A
:103F10004DE04FF000400097CDE9011006A90EA832
:103F2000FFF7CAFCDDE90F0203920E9B11990022F4
:103F3000DDF80CA00093049211B9791C00EB010A82
:103F4000B7EB0A0004D4C0F1FF3007F1010A049076
:103F5000AAEB0700019044E0012F00DA01270021BD
:103F6000112F01DD112000E03846CDE9000106A93E
:103F70000EA8FFF7A1FCDDE90F010E9A03910021C5
:103F800004910092BA4621070CD40399514500DAF6
:103F90008A46BAF1010F05DD009AAAF10101515CD0
:103FA000302908D0B84202DA10F1040F06DA0121F4
:103FB000CDE9011015E0AAF10101E9E7002805DCCF
:103FC000049901440491AAEB000102E0411C51450F
:103FD00000DD8A460499401A401C01904FF00040D1
:103FE0000290200704D40198504501DBCDF80480ED
:103FF00000208DF84F0002980DF14F07B0F1004FEF
:1040000025D02B200E9002984FF0020800280CDAE1
:10401000404202902D200E9007E00A210298FFF7FF
:1040200076F93031029007F8011DB8F10001A8F1CE
:104030000108F2DC02980028EFD1791E0E98087072
:10404000307800F0200040F0450007F8020D12A87B
:10405000C01B00F107081498007800B1012000EBA4
:104060000A01019801EBE07105984144401A401E95
:104070000590E00306D45B462146179A059800F0A8
:104080005DF805441498007818B15A46179990477E
:104090006D1CE00324D55B462146179A059800F075
:1040A0004DF805441CE00498002807DBDDE9030116
:1040B000884203DD0098405C179901E01799302091
:1040C0005A469047049805F10105401C0490019858
:1040D000401E019004D12E205A46179990476D1C1E
:1040E000BAF10001AAF1010ADDDC05E017F8010BC5
:1040F0005A46179990476D1CB8F10001A8F10108C4
:10410000F4DC5B462146179A0598ABE62D000000CB
:104110002B000000200000002DE9F041044600259E
:104120001E461746880404D405E039462020B047CF
:104130006D1C641EF9D52846BDE8F0812DE9F041DB
:10414000044600251E469046C80301D5302700E0EE
:104150002027880404D505E041463846B0476D1C49
:10416000641EF9D52846BDE8F0812DE9F0410646E8
:104170000F46FFF75FFA041E0D4618BF01202843C3
:1041800020F00040C0F17F6000F1E040C00F0ED091
:10419000301C18BF0120384320F00040C0F17F6080
:1041A00000F1E040C00F04BF0120FFF77FFB204675
:1041B0002946BDE8F081004040404040404040403A
:1041C00041414141414040404040404040404040EA
:1041D000404040404040400502020202020202020A
:1041E00002020202020202202020202020202020A1
:1041F0002002020202020202909090909090101011
:1042000010101010101010101010101010101010AE
:104210001010020202020202888888888888080832
:10422000080808080808080808080808080808080E
:104230000808020202024000B74100080A0DC7FD4B
:10424000B6AFC6F7BDFBD6B9CAE4B3F6A3A8CDD1C5
:10425000BBFAD7B4CCACA3A9B4CBCAB1B5E7BBFA0F
:10426000CEAACEDEB1A3B3D6C1A6BED8D7B4CCAC4D
:10427000A3ACBFC9D2D4CAD6B6AFD0FDD7AAB5E7D2
:10428000BBFA00000A0DC7FDB6AFC6F7BBD6B8B47F
:10429000D4CBD0D0A3ACB4CBCAB1B5E7BBFACEAACD
:1042A000B1A3B3D6C1A6BED8D7B4CCACA3ACB4CB63
:1042B000CAB1B4AEBFDAD6B8C1EEBFC9D2D4D5FD4B
:1042C000B3A3BFD8D6C6B5E7BBFA00000A0DBFAA94
:1042D000B7A2B0E5B0B4BCFCA3AC4B455931A3BA0E
:1042E000C7FDB6AFC6F7BDFBD6B9CAE4B3F628CD55
:1042F000D1BBFAD7B4CCAC2920204B455932A3BA54
:10430000C7FDB6AFC6F7BBD6B8B4D5FDB3A3B9A445
:10431000D7F70A0D200000000A0D615B646174612B
:104320005D20202020202DC9E8D6C3B2BDBDF8B540
:10433000E7BBFAB5C4BCD3CBD9B6C8A3A8B7B6CE31
:10434000A7A3BA3731A1AA3332303030A3A9B5A51B
:10435000CEBBCEAAA3BA302E30317261642F735E09
:10436000320000000A0D645B646174615D202020EE
:1043700020202DC9E8D6C3B2BDBDF8B5E7BBFAB55C
:10438000C4BCF5CBD9B6C8A3A8B7B6CEA7A3BA37D5
:1043900031A1AA3332303030A3A9B5A5CEBBCEAA05
:1043A000A3BA302E30317261642F735E3200000088
:1043B0000A0D735B646174615D20202020202DC98B
:1043C000E8D6C3B2BDBDF8B5E7BBFAB5C4D7EEB405
:1043D000F3CBD9B6C8A3A8B7B6CEA7A3BA3132A13A
:1043E000AA33303030A3A9B5A5CEBBCEAAA3BA302C
:1043F0002E30317261642F73000000000A0D6D5B76
:10440000646174615D20202020202DD2D4C9E8B6DB
:10441000A8B5C4B2BDCAFDD2C6B6AFB2BDBDF8B56F
:10442000E7BBFAA3A8B7B6CEA7A3BA2D323134376B
:10443000343833363437A1AA32313437343833364E
:104440003437A3ACC6E4D6D0D5FDCAFDCEAACBB3D3
:10445000CAB1D5EBA3ACB8BACAFDCEAAC4E6CAB1FC
:10446000D5EBA3A9000000000A0DA1AAA1AAA1AA48
:10447000A1AAA1AAA1AAA1AAA1AAA1AAA1AAA1AAE4
:10448000A1AAA1AAA1AAB2BDBDF8B5E7BBFAC7FD12
:10449000B6AFD1DDCABEB3CCD0F2A1AAA1AAA1AA5F
:1044A000A1AAA1AAA1AAA1AAA1AAA1AAA1AAA1AAB4
:1044B000A1AAA1AAA1AA0000D844000800000020D7
:1044C000600000008C3800083845000860000020BB
:1044D000180500009C38000800A24A0400000000F3
:1044E00000000000010203040607080900000000A4
:1044F0000102030401020304060708090204060876
:1045000000000000040000000000000000000000A7
:10451000000000000000000001000000409C0000BE
:10452000007D0000007D0000B80B000000000000CE
:08453000000000000000000083
:0400000508000131BD
:00000001FF
